{
  "_format": "hh-sol-artifact-1",
  "contractName": "Pair",
  "sourceName": "contracts/Pair.sol",
  "abi": [
    {
      "inputs": [
        {
          "internalType": "address",
          "name": "_tokenA",
          "type": "address"
        },
        {
          "internalType": "address",
          "name": "_tokenB",
          "type": "address"
        }
      ],
      "stateMutability": "nonpayable",
      "type": "constructor"
    },
    {
      "inputs": [
        {
          "internalType": "address",
          "name": "spender",
          "type": "address"
        },
        {
          "internalType": "uint256",
          "name": "allowance",
          "type": "uint256"
        },
        {
          "internalType": "uint256",
          "name": "needed",
          "type": "uint256"
        }
      ],
      "name": "ERC20InsufficientAllowance",
      "type": "error"
    },
    {
      "inputs": [
        {
          "internalType": "address",
          "name": "sender",
          "type": "address"
        },
        {
          "internalType": "uint256",
          "name": "balance",
          "type": "uint256"
        },
        {
          "internalType": "uint256",
          "name": "needed",
          "type": "uint256"
        }
      ],
      "name": "ERC20InsufficientBalance",
      "type": "error"
    },
    {
      "inputs": [
        {
          "internalType": "address",
          "name": "approver",
          "type": "address"
        }
      ],
      "name": "ERC20InvalidApprover",
      "type": "error"
    },
    {
      "inputs": [
        {
          "internalType": "address",
          "name": "receiver",
          "type": "address"
        }
      ],
      "name": "ERC20InvalidReceiver",
      "type": "error"
    },
    {
      "inputs": [
        {
          "internalType": "address",
          "name": "sender",
          "type": "address"
        }
      ],
      "name": "ERC20InvalidSender",
      "type": "error"
    },
    {
      "inputs": [
        {
          "internalType": "address",
          "name": "spender",
          "type": "address"
        }
      ],
      "name": "ERC20InvalidSpender",
      "type": "error"
    },
    {
      "anonymous": false,
      "inputs": [
        {
          "indexed": true,
          "internalType": "address",
          "name": "sender",
          "type": "address"
        },
        {
          "indexed": false,
          "internalType": "uint256",
          "name": "amountA",
          "type": "uint256"
        },
        {
          "indexed": false,
          "internalType": "uint256",
          "name": "amountB",
          "type": "uint256"
        },
        {
          "indexed": false,
          "internalType": "uint256",
          "name": "liquidity",
          "type": "uint256"
        }
      ],
      "name": "AddLiquidity",
      "type": "event"
    },
    {
      "anonymous": false,
      "inputs": [
        {
          "indexed": true,
          "internalType": "address",
          "name": "owner",
          "type": "address"
        },
        {
          "indexed": true,
          "internalType": "address",
          "name": "spender",
          "type": "address"
        },
        {
          "indexed": false,
          "internalType": "uint256",
          "name": "value",
          "type": "uint256"
        }
      ],
      "name": "Approval",
      "type": "event"
    },
    {
      "anonymous": false,
      "inputs": [
        {
          "indexed": true,
          "internalType": "address",
          "name": "sender",
          "type": "address"
        },
        {
          "indexed": false,
          "internalType": "uint256",
          "name": "amount0",
          "type": "uint256"
        },
        {
          "indexed": false,
          "internalType": "uint256",
          "name": "amount1",
          "type": "uint256"
        },
        {
          "indexed": true,
          "internalType": "address",
          "name": "to",
          "type": "address"
        }
      ],
      "name": "Burn",
      "type": "event"
    },
    {
      "anonymous": false,
      "inputs": [
        {
          "indexed": true,
          "internalType": "address",
          "name": "sender",
          "type": "address"
        },
        {
          "indexed": false,
          "internalType": "uint256",
          "name": "amount0",
          "type": "uint256"
        },
        {
          "indexed": false,
          "internalType": "uint256",
          "name": "amount1",
          "type": "uint256"
        }
      ],
      "name": "Mint",
      "type": "event"
    },
    {
      "anonymous": false,
      "inputs": [
        {
          "indexed": true,
          "internalType": "address",
          "name": "sender",
          "type": "address"
        },
        {
          "indexed": false,
          "internalType": "uint256",
          "name": "amountA",
          "type": "uint256"
        },
        {
          "indexed": false,
          "internalType": "uint256",
          "name": "amountB",
          "type": "uint256"
        },
        {
          "indexed": false,
          "internalType": "uint256",
          "name": "liquidity",
          "type": "uint256"
        }
      ],
      "name": "RemoveLiquidity",
      "type": "event"
    },
    {
      "anonymous": false,
      "inputs": [
        {
          "indexed": true,
          "internalType": "address",
          "name": "sender",
          "type": "address"
        },
        {
          "indexed": true,
          "internalType": "address",
          "name": "tokenIn",
          "type": "address"
        },
        {
          "indexed": true,
          "internalType": "address",
          "name": "tokenOut",
          "type": "address"
        },
        {
          "indexed": false,
          "internalType": "uint256",
          "name": "amountIn",
          "type": "uint256"
        },
        {
          "indexed": false,
          "internalType": "uint256",
          "name": "amountOut",
          "type": "uint256"
        }
      ],
      "name": "Swap",
      "type": "event"
    },
    {
      "anonymous": false,
      "inputs": [
        {
          "indexed": true,
          "internalType": "address",
          "name": "from",
          "type": "address"
        },
        {
          "indexed": true,
          "internalType": "address",
          "name": "to",
          "type": "address"
        },
        {
          "indexed": false,
          "internalType": "uint256",
          "name": "value",
          "type": "uint256"
        }
      ],
      "name": "Transfer",
      "type": "event"
    },
    {
      "inputs": [
        {
          "internalType": "uint256",
          "name": "amountAIn",
          "type": "uint256"
        },
        {
          "internalType": "uint256",
          "name": "amountBIn",
          "type": "uint256"
        }
      ],
      "name": "addLiquidity",
      "outputs": [
        {
          "internalType": "uint256",
          "name": "_amountA",
          "type": "uint256"
        },
        {
          "internalType": "uint256",
          "name": "_amountB",
          "type": "uint256"
        },
        {
          "internalType": "uint256",
          "name": "liquidity",
          "type": "uint256"
        }
      ],
      "stateMutability": "nonpayable",
      "type": "function"
    },
    {
      "inputs": [
        {
          "internalType": "address",
          "name": "owner",
          "type": "address"
        },
        {
          "internalType": "address",
          "name": "spender",
          "type": "address"
        }
      ],
      "name": "allowance",
      "outputs": [
        {
          "internalType": "uint256",
          "name": "",
          "type": "uint256"
        }
      ],
      "stateMutability": "view",
      "type": "function"
    },
    {
      "inputs": [
        {
          "internalType": "address",
          "name": "spender",
          "type": "address"
        },
        {
          "internalType": "uint256",
          "name": "value",
          "type": "uint256"
        }
      ],
      "name": "approve",
      "outputs": [
        {
          "internalType": "bool",
          "name": "",
          "type": "bool"
        }
      ],
      "stateMutability": "nonpayable",
      "type": "function"
    },
    {
      "inputs": [
        {
          "internalType": "address",
          "name": "account",
          "type": "address"
        }
      ],
      "name": "balanceOf",
      "outputs": [
        {
          "internalType": "uint256",
          "name": "",
          "type": "uint256"
        }
      ],
      "stateMutability": "view",
      "type": "function"
    },
    {
      "inputs": [],
      "name": "decimals",
      "outputs": [
        {
          "internalType": "uint8",
          "name": "",
          "type": "uint8"
        }
      ],
      "stateMutability": "view",
      "type": "function"
    },
    {
      "inputs": [],
      "name": "getReserves",
      "outputs": [
        {
          "internalType": "uint256",
          "name": "_reserveA",
          "type": "uint256"
        },
        {
          "internalType": "uint256",
          "name": "_reserveB",
          "type": "uint256"
        }
      ],
      "stateMutability": "view",
      "type": "function"
    },
    {
      "inputs": [],
      "name": "getTokenA",
      "outputs": [
        {
          "internalType": "address",
          "name": "_tokenA",
          "type": "address"
        }
      ],
      "stateMutability": "view",
      "type": "function"
    },
    {
      "inputs": [],
      "name": "getTokenB",
      "outputs": [
        {
          "internalType": "address",
          "name": "_tokenB",
          "type": "address"
        }
      ],
      "stateMutability": "view",
      "type": "function"
    },
    {
      "inputs": [],
      "name": "name",
      "outputs": [
        {
          "internalType": "string",
          "name": "",
          "type": "string"
        }
      ],
      "stateMutability": "view",
      "type": "function"
    },
    {
      "inputs": [
        {
          "internalType": "uint256",
          "name": "liquidity",
          "type": "uint256"
        }
      ],
      "name": "removeLiquidity",
      "outputs": [
        {
          "internalType": "uint256",
          "name": "_amountA",
          "type": "uint256"
        },
        {
          "internalType": "uint256",
          "name": "_amountB",
          "type": "uint256"
        }
      ],
      "stateMutability": "nonpayable",
      "type": "function"
    },
    {
      "inputs": [],
      "name": "reserveA",
      "outputs": [
        {
          "internalType": "uint256",
          "name": "",
          "type": "uint256"
        }
      ],
      "stateMutability": "view",
      "type": "function"
    },
    {
      "inputs": [],
      "name": "reserveB",
      "outputs": [
        {
          "internalType": "uint256",
          "name": "",
          "type": "uint256"
        }
      ],
      "stateMutability": "view",
      "type": "function"
    },
    {
      "inputs": [
        {
          "internalType": "address",
          "name": "tokenIn",
          "type": "address"
        },
        {
          "internalType": "address",
          "name": "tokenOut",
          "type": "address"
        },
        {
          "internalType": "uint256",
          "name": "amountIn",
          "type": "uint256"
        }
      ],
      "name": "swap",
      "outputs": [
        {
          "internalType": "uint256",
          "name": "amountOut",
          "type": "uint256"
        }
      ],
      "stateMutability": "nonpayable",
      "type": "function"
    },
    {
      "inputs": [],
      "name": "symbol",
      "outputs": [
        {
          "internalType": "string",
          "name": "",
          "type": "string"
        }
      ],
      "stateMutability": "view",
      "type": "function"
    },
    {
      "inputs": [],
      "name": "tokenA",
      "outputs": [
        {
          "internalType": "address",
          "name": "",
          "type": "address"
        }
      ],
      "stateMutability": "view",
      "type": "function"
    },
    {
      "inputs": [],
      "name": "tokenB",
      "outputs": [
        {
          "internalType": "address",
          "name": "",
          "type": "address"
        }
      ],
      "stateMutability": "view",
      "type": "function"
    },
    {
      "inputs": [],
      "name": "totalSupply",
      "outputs": [
        {
          "internalType": "uint256",
          "name": "",
          "type": "uint256"
        }
      ],
      "stateMutability": "view",
      "type": "function"
    },
    {
      "inputs": [
        {
          "internalType": "address",
          "name": "to",
          "type": "address"
        },
        {
          "internalType": "uint256",
          "name": "value",
          "type": "uint256"
        }
      ],
      "name": "transfer",
      "outputs": [
        {
          "internalType": "bool",
          "name": "",
          "type": "bool"
        }
      ],
      "stateMutability": "nonpayable",
      "type": "function"
    },
    {
      "inputs": [
        {
          "internalType": "address",
          "name": "from",
          "type": "address"
        },
        {
          "internalType": "address",
          "name": "to",
          "type": "address"
        },
        {
          "internalType": "uint256",
          "name": "value",
          "type": "uint256"
        }
      ],
      "name": "transferFrom",
      "outputs": [
        {
          "internalType": "bool",
          "name": "",
          "type": "bool"
        }
      ],
      "stateMutability": "nonpayable",
      "type": "function"
    }
  ],
  "bytecode": "0x608060405260016009553480156200001657600080fd5b5060405162003db338038062003db383398181016040528101906200003c9190620003ba565b6040518060400160405280600481526020017f50616972000000000000000000000000000000000000000000000000000000008152506040518060400160405280600481526020017f50414952000000000000000000000000000000000000000000000000000000008152508160039081620000b991906200067b565b508060049081620000cb91906200067b565b505050620000df826200033d60201b60201c565b62000121576040517f08c379a00000000000000000000000000000000000000000000000000000000081526004016200011890620007c3565b60405180910390fd5b62000132816200033d60201b60201c565b62000174576040517f08c379a00000000000000000000000000000000000000000000000000000000081526004016200016b9062000835565b60405180910390fd5b8073ffffffffffffffffffffffffffffffffffffffff168273ffffffffffffffffffffffffffffffffffffffff1603620001e5576040517f08c379a0000000000000000000000000000000000000000000000000000000008152600401620001dc90620008a7565b60405180910390fd5b600060078190555060006008819055508073ffffffffffffffffffffffffffffffffffffffff168273ffffffffffffffffffffffffffffffffffffffff161115620002b25780600560006101000a81548173ffffffffffffffffffffffffffffffffffffffff021916908373ffffffffffffffffffffffffffffffffffffffff16021790555081600660006101000a81548173ffffffffffffffffffffffffffffffffffffffff021916908373ffffffffffffffffffffffffffffffffffffffff16021790555062000335565b81600560006101000a81548173ffffffffffffffffffffffffffffffffffffffff021916908373ffffffffffffffffffffffffffffffffffffffff16021790555080600660006101000a81548173ffffffffffffffffffffffffffffffffffffffff021916908373ffffffffffffffffffffffffffffffffffffffff1602179055505b5050620008c9565b600080823b905060008111915050919050565b600080fd5b600073ffffffffffffffffffffffffffffffffffffffff82169050919050565b6000620003828262000355565b9050919050565b620003948162000375565b8114620003a057600080fd5b50565b600081519050620003b48162000389565b92915050565b60008060408385031215620003d457620003d362000350565b5b6000620003e485828601620003a3565b9250506020620003f785828601620003a3565b9150509250929050565b600081519050919050565b7f4e487b7100000000000000000000000000000000000000000000000000000000600052604160045260246000fd5b7f4e487b7100000000000000000000000000000000000000000000000000000000600052602260045260246000fd5b600060028204905060018216806200048357607f821691505b6020821081036200049957620004986200043b565b5b50919050565b60008190508160005260206000209050919050565b60006020601f8301049050919050565b600082821b905092915050565b600060088302620005037fffffffffffffffffffffffffffffffffffffffffffffffffffffffffffffffff82620004c4565b6200050f8683620004c4565b95508019841693508086168417925050509392505050565b6000819050919050565b6000819050919050565b60006200055c62000556620005508462000527565b62000531565b62000527565b9050919050565b6000819050919050565b62000578836200053b565b62000590620005878262000563565b848454620004d1565b825550505050565b600090565b620005a762000598565b620005b48184846200056d565b505050565b5b81811015620005dc57620005d06000826200059d565b600181019050620005ba565b5050565b601f8211156200062b57620005f5816200049f565b6200060084620004b4565b8101602085101562000610578190505b620006286200061f85620004b4565b830182620005b9565b50505b505050565b600082821c905092915050565b6000620006506000198460080262000630565b1980831691505092915050565b60006200066b83836200063d565b9150826002028217905092915050565b620006868262000401565b67ffffffffffffffff811115620006a257620006a16200040c565b5b620006ae82546200046a565b620006bb828285620005e0565b600060209050601f831160018114620006f35760008415620006de578287015190505b620006ea85826200065d565b8655506200075a565b601f19841662000703866200049f565b60005b828110156200072d5784890151825560018201915060208501945060208101905062000706565b868310156200074d578489015162000749601f8916826200063d565b8355505b6001600288020188555050505b505050505050565b600082825260208201905092915050565b7f544f4b454e415f49535f4e4f545f434f4e545241435400000000000000000000600082015250565b6000620007ab60168362000762565b9150620007b88262000773565b602082019050919050565b60006020820190508181036000830152620007de816200079c565b9050919050565b7f544f4b454e425f49535f4e4f545f434f4e545241435400000000000000000000600082015250565b60006200081d60168362000762565b91506200082a82620007e5565b602082019050919050565b6000602082019050818103600083015262000850816200080e565b9050919050565b7f544f4b454e415f544f4b454e425f4944454e544943414c5f4144445245535300600082015250565b60006200088f601f8362000762565b91506200089c8262000857565b602082019050919050565b60006020820190508181036000830152620008c28162000880565b9050919050565b6134da80620008d96000396000f3fe608060405234801561001057600080fd5b50600436106101215760003560e01c80635f64b55b116100ad578063a9059cbb11610071578063a9059cbb14610328578063ae0ba2fb14610358578063dc5fa6c514610376578063dd62ed3e14610394578063df791e50146103c457610121565b80635f64b55b1461025957806370a082311461027757806395d89b41146102a75780639c8f9f23146102c55780639cd441da146102f657610121565b80630fc63d10116100f45780630fc63d10146101b157806318160ddd146101cf57806319e36f3b146101ed57806323b872dd1461020b578063313ce5671461023b57610121565b806306fdde03146101265780630902f1ac14610144578063095ea7b3146101635780630f0148ea14610193575b600080fd5b61012e6103f4565b60405161013b91906127bc565b60405180910390f35b61014c610486565b60405161015a9291906127f7565b60405180910390f35b61017d600480360381019061017891906128af565b610497565b60405161018a919061290a565b60405180910390f35b61019b6104ba565b6040516101a89190612934565b60405180910390f35b6101b96104e4565b6040516101c69190612934565b60405180910390f35b6101d761050a565b6040516101e4919061294f565b60405180910390f35b6101f5610514565b604051610202919061294f565b60405180910390f35b6102256004803603810190610220919061296a565b61051a565b604051610232919061290a565b60405180910390f35b610243610549565b60405161025091906129d9565b60405180910390f35b610261610552565b60405161026e9190612934565b60405180910390f35b610291600480360381019061028c91906129f4565b610578565b60405161029e919061294f565b60405180910390f35b6102af6105c0565b6040516102bc91906127bc565b60405180910390f35b6102df60048036038101906102da9190612a21565b610652565b6040516102ed9291906127f7565b60405180910390f35b610310600480360381019061030b9190612a4e565b61070b565b60405161031f93929190612a8e565b60405180910390f35b610342600480360381019061033d91906128af565b610a66565b60405161034f919061290a565b60405180910390f35b610360610a89565b60405161036d9190612934565b60405180910390f35b61037e610ab3565b60405161038b919061294f565b60405180910390f35b6103ae60048036038101906103a99190612ac5565b610ab9565b6040516103bb919061294f565b60405180910390f35b6103de60048036038101906103d9919061296a565b610b40565b6040516103eb919061294f565b60405180910390f35b60606003805461040390612b34565b80601f016020809104026020016040519081016040528092919081815260200182805461042f90612b34565b801561047c5780601f106104515761010080835404028352916020019161047c565b820191906000526020600020905b81548152906001019060200180831161045f57829003601f168201915b5050505050905090565b600080600754915060085490509091565b6000806104a2611325565b90506104af81858561132d565b600191505092915050565b6000600660009054906101000a900473ffffffffffffffffffffffffffffffffffffffff16905090565b600560009054906101000a900473ffffffffffffffffffffffffffffffffffffffff1681565b6000600254905090565b60085481565b600080610525611325565b905061053285828561133f565b61053d8585856113d3565b60019150509392505050565b60006012905090565b600660009054906101000a900473ffffffffffffffffffffffffffffffffffffffff1681565b60008060008373ffffffffffffffffffffffffffffffffffffffff1673ffffffffffffffffffffffffffffffffffffffff168152602001908152602001600020549050919050565b6060600480546105cf90612b34565b80601f01602080910402602001604051908101604052809291908181526020018280546105fb90612b34565b80156106485780601f1061061d57610100808354040283529160200191610648565b820191906000526020600020905b81548152906001019060200180831161062b57829003601f168201915b5050505050905090565b60008060008311610698576040517f08c379a000000000000000000000000000000000000000000000000000000000815260040161068f90612bb1565b60405180910390fd5b6106a33330856113d3565b6106ac336114c7565b80925081935050503373ffffffffffffffffffffffffffffffffffffffff167f59c3a0b60c6ab7deb62e1440c9e72441db6db7dfe514dba8cb18e60c0d896efa8383866040516106fe93929190612a8e565b60405180910390a2915091565b60008060006107716040518060400160405280600f81526020017f546f6b656e4120616464726573733a0000000000000000000000000000000000815250600560009054906101000a900473ffffffffffffffffffffffffffffffffffffffff16611913565b6107d26040518060400160405280600f81526020017f546f6b656e4220616464726573733a0000000000000000000000000000000000815250600660009054906101000a900473ffffffffffffffffffffffffffffffffffffffff16611913565b60008511610815576040517f08c379a000000000000000000000000000000000000000000000000000000000815260040161080c90612c1d565b60405180910390fd5b60008411610858576040517f08c379a000000000000000000000000000000000000000000000000000000000815260040161084f90612c1d565b60405180910390fd5b61086285856119af565b80935081945050503373ffffffffffffffffffffffffffffffffffffffff167fbeb3885786d637a474cbc287c0a44587231633a077f0bd30354d5a4b18996fce8484846040516108b493929190612a8e565b60405180910390a2600560009054906101000a900473ffffffffffffffffffffffffffffffffffffffff1673ffffffffffffffffffffffffffffffffffffffff166323b872dd3330866040518463ffffffff1660e01b815260040161091b93929190612c3d565b6020604051808303816000875af115801561093a573d6000803e3d6000fd5b505050506040513d601f19601f8201168201806040525081019061095e9190612ca0565b50600660009054906101000a900473ffffffffffffffffffffffffffffffffffffffff1673ffffffffffffffffffffffffffffffffffffffff166323b872dd3330856040518463ffffffff1660e01b81526004016109be93929190612c3d565b6020604051808303816000875af11580156109dd573d6000803e3d6000fd5b505050506040513d601f19601f82011682018060405250810190610a019190612ca0565b50610a0b33611ac2565b90503373ffffffffffffffffffffffffffffffffffffffff167fbeb3885786d637a474cbc287c0a44587231633a077f0bd30354d5a4b18996fce848484604051610a5793929190612a8e565b60405180910390a29250925092565b600080610a71611325565b9050610a7e8185856113d3565b600191505092915050565b6000600560009054906101000a900473ffffffffffffffffffffffffffffffffffffffff16905090565b60075481565b6000600160008473ffffffffffffffffffffffffffffffffffffffff1673ffffffffffffffffffffffffffffffffffffffff16815260200190815260200160002060008373ffffffffffffffffffffffffffffffffffffffff1673ffffffffffffffffffffffffffffffffffffffff16815260200190815260200160002054905092915050565b6000600560009054906101000a900473ffffffffffffffffffffffffffffffffffffffff1673ffffffffffffffffffffffffffffffffffffffff168473ffffffffffffffffffffffffffffffffffffffff161480610beb5750600660009054906101000a900473ffffffffffffffffffffffffffffffffffffffff1673ffffffffffffffffffffffffffffffffffffffff168473ffffffffffffffffffffffffffffffffffffffff16145b610c2a576040517f08c379a0000000000000000000000000000000000000000000000000000000008152600401610c2190612d19565b60405180910390fd5b600560009054906101000a900473ffffffffffffffffffffffffffffffffffffffff1673ffffffffffffffffffffffffffffffffffffffff168373ffffffffffffffffffffffffffffffffffffffff161480610cd35750600660009054906101000a900473ffffffffffffffffffffffffffffffffffffffff1673ffffffffffffffffffffffffffffffffffffffff168373ffffffffffffffffffffffffffffffffffffffff16145b610d12576040517f08c379a0000000000000000000000000000000000000000000000000000000008152600401610d0990612d85565b60405180910390fd5b8273ffffffffffffffffffffffffffffffffffffffff168473ffffffffffffffffffffffffffffffffffffffff1603610d80576040517f08c379a0000000000000000000000000000000000000000000000000000000008152600401610d7790612df1565b60405180910390fd5b60008211610dc3576040517f08c379a0000000000000000000000000000000000000000000000000000000008152600401610dba90612c1d565b60405180910390fd5b6000600560009054906101000a900473ffffffffffffffffffffffffffffffffffffffff1673ffffffffffffffffffffffffffffffffffffffff168573ffffffffffffffffffffffffffffffffffffffff1614610e2257600854610e26565b6007545b90506000600560009054906101000a900473ffffffffffffffffffffffffffffffffffffffff1673ffffffffffffffffffffffffffffffffffffffff168573ffffffffffffffffffffffffffffffffffffffff1614610e8757600854610e8b565b6007545b90508382610e999190612e40565b8185610ea59190612e74565b610eaf9190612ee5565b925060008311610ef4576040517f08c379a0000000000000000000000000000000000000000000000000000000008152600401610eeb90612f62565b60405180910390fd5b80831115610f37576040517f08c379a0000000000000000000000000000000000000000000000000000000008152600401610f2e90612fce565b60405180910390fd5b8573ffffffffffffffffffffffffffffffffffffffff166323b872dd3330876040518463ffffffff1660e01b8152600401610f7493929190612c3d565b6020604051808303816000875af1158015610f93573d6000803e3d6000fd5b505050506040513d601f19601f82011682018060405250810190610fb79190612ca0565b508473ffffffffffffffffffffffffffffffffffffffff1663a9059cbb33856040518363ffffffff1660e01b8152600401610ff3929190612fee565b6020604051808303816000875af1158015611012573d6000803e3d6000fd5b505050506040513d601f19601f820116820180604052508101906110369190612ca0565b50600560009054906101000a900473ffffffffffffffffffffffffffffffffffffffff1673ffffffffffffffffffffffffffffffffffffffff168673ffffffffffffffffffffffffffffffffffffffff16036110c357836007600082825461109e9190612e40565b9250508190555082600860008282546110b79190613017565b925050819055506110f6565b82600760008282546110d59190613017565b9250508190555083600860008282546110ee9190612e40565b925050819055505b6000600560009054906101000a900473ffffffffffffffffffffffffffffffffffffffff1673ffffffffffffffffffffffffffffffffffffffff166370a08231306040518263ffffffff1660e01b81526004016111539190612934565b602060405180830381865afa158015611170573d6000803e3d6000fd5b505050506040513d601f19601f820116820180604052508101906111949190613060565b90506000600660009054906101000a900473ffffffffffffffffffffffffffffffffffffffff1673ffffffffffffffffffffffffffffffffffffffff166370a08231306040518263ffffffff1660e01b81526004016111f39190612934565b602060405180830381865afa158015611210573d6000803e3d6000fd5b505050506040513d601f19601f820116820180604052508101906112349190613060565b90506008546007546112469190612e74565b81836112529190612e74565b14611292576040517f08c379a0000000000000000000000000000000000000000000000000000000008152600401611289906130d9565b60405180910390fd5b61129c8282611d9a565b8673ffffffffffffffffffffffffffffffffffffffff168873ffffffffffffffffffffffffffffffffffffffff163373ffffffffffffffffffffffffffffffffffffffff167fcd3829a3813dc3cdd188fd3d01dcf3268c16be2fdd2dd21d0665418816e4606289896040516113129291906127f7565b60405180910390a4505050509392505050565b600033905090565b61133a8383836001611dac565b505050565b600061134b8484610ab9565b90507fffffffffffffffffffffffffffffffffffffffffffffffffffffffffffffffff81146113cd57818110156113bd578281836040517ffb8f41b20000000000000000000000000000000000000000000000000000000081526004016113b4939291906130f9565b60405180910390fd5b6113cc84848484036000611dac565b5b50505050565b600073ffffffffffffffffffffffffffffffffffffffff168373ffffffffffffffffffffffffffffffffffffffff16036114455760006040517f96c6fd1e00000000000000000000000000000000000000000000000000000000815260040161143c9190612934565b60405180910390fd5b600073ffffffffffffffffffffffffffffffffffffffff168273ffffffffffffffffffffffffffffffffffffffff16036114b75760006040517fec442f050000000000000000000000000000000000000000000000000000000081526004016114ae9190612934565b60405180910390fd5b6114c2838383611f83565b505050565b60008060016009541461150f576040517f08c379a00000000000000000000000000000000000000000000000000000000081526004016115069061317c565b60405180910390fd5b60006009819055506000600560009054906101000a900473ffffffffffffffffffffffffffffffffffffffff1673ffffffffffffffffffffffffffffffffffffffff166370a08231306040518263ffffffff1660e01b81526004016115749190612934565b602060405180830381865afa158015611591573d6000803e3d6000fd5b505050506040513d601f19601f820116820180604052508101906115b59190613060565b90506000600660009054906101000a900473ffffffffffffffffffffffffffffffffffffffff1673ffffffffffffffffffffffffffffffffffffffff166370a08231306040518263ffffffff1660e01b81526004016116149190612934565b602060405180830381865afa158015611631573d6000803e3d6000fd5b505050506040513d601f19601f820116820180604052508101906116559190613060565b9050600061166230610578565b9050600061166e61050a565b905080848361167d9190612e74565b6116879190612ee5565b95508083836116969190612e74565b6116a09190612ee5565b94506000861180156116b25750600085115b6116f1576040517f08c379a00000000000000000000000000000000000000000000000000000000081526004016116e890612bb1565b60405180910390fd5b6116fb30836121a8565b611728600560009054906101000a900473ffffffffffffffffffffffffffffffffffffffff16888861222a565b611755600660009054906101000a900473ffffffffffffffffffffffffffffffffffffffff16888761222a565b600560009054906101000a900473ffffffffffffffffffffffffffffffffffffffff1673ffffffffffffffffffffffffffffffffffffffff166370a08231306040518263ffffffff1660e01b81526004016117b09190612934565b602060405180830381865afa1580156117cd573d6000803e3d6000fd5b505050506040513d601f19601f820116820180604052508101906117f19190613060565b9350600660009054906101000a900473ffffffffffffffffffffffffffffffffffffffff1673ffffffffffffffffffffffffffffffffffffffff166370a08231306040518263ffffffff1660e01b815260040161184e9190612934565b602060405180830381865afa15801561186b573d6000803e3d6000fd5b505050506040513d601f19601f8201168201806040525081019061188f9190613060565b925061189b8484611d9a565b8673ffffffffffffffffffffffffffffffffffffffff163373ffffffffffffffffffffffffffffffffffffffff167fdccd412f0b1252819cb1fd330b93224ca42612892bb3f4f789976e6d8193649688886040516118fa9291906127f7565b60405180910390a3505050506001600981905550915091565b6119ab828260405160240161192992919061319c565b6040516020818303038152906040527f319af333000000000000000000000000000000000000000000000000000000007bffffffffffffffffffffffffffffffffffffffffffffffffffffffff19166020820180517bffffffffffffffffffffffffffffffffffffffffffffffffffffffff83818316178352505050506123b4565b5050565b60008060006007541480156119c657506000600854145b156119da5783838092508193505050611abb565b60006119eb856007546008546123ce565b9050838111611a465760008111611a37576040517f08c379a0000000000000000000000000000000000000000000000000000000008152600401611a2e90613218565b60405180910390fd5b84818093508194505050611ab9565b6000611a57856008546007546123ce565b905085811115611a6a57611a69613238565b5b60008111611aad576040517f08c379a0000000000000000000000000000000000000000000000000000000008152600401611aa4906132b3565b60405180910390fd5b80858094508195505050505b505b9250929050565b6000600160095414611b09576040517f08c379a0000000000000000000000000000000000000000000000000000000008152600401611b009061317c565b60405180910390fd5b60006009819055506000600560009054906101000a900473ffffffffffffffffffffffffffffffffffffffff1673ffffffffffffffffffffffffffffffffffffffff166370a08231306040518263ffffffff1660e01b8152600401611b6e9190612934565b602060405180830381865afa158015611b8b573d6000803e3d6000fd5b505050506040513d601f19601f82011682018060405250810190611baf9190613060565b90506000600660009054906101000a900473ffffffffffffffffffffffffffffffffffffffff1673ffffffffffffffffffffffffffffffffffffffff166370a08231306040518263ffffffff1660e01b8152600401611c0e9190612934565b602060405180830381865afa158015611c2b573d6000803e3d6000fd5b505050506040513d601f19601f82011682018060405250810190611c4f9190613060565b9050600060075483611c619190613017565b9050600060085483611c739190613017565b90506000611c7f61050a565b905060008103611ca457611c9d8284611c989190612e74565b612481565b9550611ce1565b611cde6007548285611cb69190612e74565b611cc09190612ee5565b6008548385611ccf9190612e74565b611cd99190612ee5565b61257a565b95505b60008611611d24576040517f08c379a0000000000000000000000000000000000000000000000000000000008152600401611d1b9061331f565b60405180910390fd5b611d2e8787612593565b611d388585611d9a565b3373ffffffffffffffffffffffffffffffffffffffff167f4c209b5fc8ad50758f13e2e1088ba56a560dff690a1c6fef26394f4c03821c4f8484604051611d809291906127f7565b60405180910390a250505050506001600981905550919050565b81600781905550806008819055505050565b600073ffffffffffffffffffffffffffffffffffffffff168473ffffffffffffffffffffffffffffffffffffffff1603611e1e5760006040517fe602df05000000000000000000000000000000000000000000000000000000008152600401611e159190612934565b60405180910390fd5b600073ffffffffffffffffffffffffffffffffffffffff168373ffffffffffffffffffffffffffffffffffffffff1603611e905760006040517f94280d62000000000000000000000000000000000000000000000000000000008152600401611e879190612934565b60405180910390fd5b81600160008673ffffffffffffffffffffffffffffffffffffffff1673ffffffffffffffffffffffffffffffffffffffff16815260200190815260200160002060008573ffffffffffffffffffffffffffffffffffffffff1673ffffffffffffffffffffffffffffffffffffffff168152602001908152602001600020819055508015611f7d578273ffffffffffffffffffffffffffffffffffffffff168473ffffffffffffffffffffffffffffffffffffffff167f8c5be1e5ebec7d5bd14f71427d1e84f3dd0314c0f7b2291e5b200ac8c7c3b92584604051611f74919061294f565b60405180910390a35b50505050565b600073ffffffffffffffffffffffffffffffffffffffff168373ffffffffffffffffffffffffffffffffffffffff1603611fd5578060026000828254611fc99190612e40565b925050819055506120a8565b60008060008573ffffffffffffffffffffffffffffffffffffffff1673ffffffffffffffffffffffffffffffffffffffff16815260200190815260200160002054905081811015612061578381836040517fe450d38c000000000000000000000000000000000000000000000000000000008152600401612058939291906130f9565b60405180910390fd5b8181036000808673ffffffffffffffffffffffffffffffffffffffff1673ffffffffffffffffffffffffffffffffffffffff16815260200190815260200160002081905550505b600073ffffffffffffffffffffffffffffffffffffffff168273ffffffffffffffffffffffffffffffffffffffff16036120f1578060026000828254039250508190555061213e565b806000808473ffffffffffffffffffffffffffffffffffffffff1673ffffffffffffffffffffffffffffffffffffffff168152602001908152602001600020600082825401925050819055505b8173ffffffffffffffffffffffffffffffffffffffff168373ffffffffffffffffffffffffffffffffffffffff167fddf252ad1be2c89b69c2b068fc378daa952ba7f163c4a11628f55a4df523b3ef8360405161219b919061294f565b60405180910390a3505050565b600073ffffffffffffffffffffffffffffffffffffffff168273ffffffffffffffffffffffffffffffffffffffff160361221a5760006040517f96c6fd1e0000000000000000000000000000000000000000000000000000000081526004016122119190612934565b60405180910390fd5b61222682600083611f83565b5050565b6000808473ffffffffffffffffffffffffffffffffffffffff166040518060400160405280601981526020017f7472616e7366657228616464726573732c75696e743235362900000000000000815250805190602001208585604051602401612294929190612fee565b604051602081830303815290604052907bffffffffffffffffffffffffffffffffffffffffffffffffffffffff19166020820180517bffffffffffffffffffffffffffffffffffffffffffffffffffffffff83818316178352505050506040516122fe9190613386565b6000604051808303816000865af19150503d806000811461233b576040519150601f19603f3d011682016040523d82523d6000602084013e612340565b606091505b509150915081801561236e575060008151148061236d57508080602001905181019061236c9190612ca0565b5b5b6123ad576040517f08c379a00000000000000000000000000000000000000000000000000000000081526004016123a4906133e9565b60405180910390fd5b5050505050565b6123cb816123c3612615612636565b63ffffffff16565b50565b6000808411612412576040517f08c379a000000000000000000000000000000000000000000000000000000000815260040161240990613455565b60405180910390fd5b6000831180156124225750600082115b612461576040517f08c379a000000000000000000000000000000000000000000000000000000000815260040161245890612fce565b60405180910390fd5b82828561246e9190612e74565b6124789190612ee5565b90509392505050565b60008082036124935760009050612575565b600060016124a084612641565b901c6001901b905060018184816124ba576124b9612eb6565b5b048201901c905060018184816124d3576124d2612eb6565b5b048201901c905060018184816124ec576124eb612eb6565b5b048201901c9050600181848161250557612504612eb6565b5b048201901c9050600181848161251e5761251d612eb6565b5b048201901c9050600181848161253757612536612eb6565b5b048201901c905060018184816125505761254f612eb6565b5b048201901c90506125718182858161256b5761256a612eb6565b5b0461257a565b9150505b919050565b6000818310612589578161258b565b825b905092915050565b600073ffffffffffffffffffffffffffffffffffffffff168273ffffffffffffffffffffffffffffffffffffffff16036126055760006040517fec442f050000000000000000000000000000000000000000000000000000000081526004016125fc9190612934565b60405180910390fd5b61261160008383611f83565b5050565b60006a636f6e736f6c652e6c6f679050600080835160208501845afa505050565b612722819050919050565b600080600090506000608084901c111561266357608083901c92506080810190505b6000604084901c111561267e57604083901c92506040810190505b6000602084901c111561269957602083901c92506020810190505b6000601084901c11156126b457601083901c92506010810190505b6000600884901c11156126cf57600883901c92506008810190505b6000600484901c11156126ea57600483901c92506004810190505b6000600284901c111561270557600283901c92506002810190505b6000600184901c1115612719576001810190505b80915050919050565b61272a613475565b565b600081519050919050565b600082825260208201905092915050565b60005b8381101561276657808201518184015260208101905061274b565b60008484015250505050565b6000601f19601f8301169050919050565b600061278e8261272c565b6127988185612737565b93506127a8818560208601612748565b6127b181612772565b840191505092915050565b600060208201905081810360008301526127d68184612783565b905092915050565b6000819050919050565b6127f1816127de565b82525050565b600060408201905061280c60008301856127e8565b61281960208301846127e8565b9392505050565b600080fd5b600073ffffffffffffffffffffffffffffffffffffffff82169050919050565b600061285082612825565b9050919050565b61286081612845565b811461286b57600080fd5b50565b60008135905061287d81612857565b92915050565b61288c816127de565b811461289757600080fd5b50565b6000813590506128a981612883565b92915050565b600080604083850312156128c6576128c5612820565b5b60006128d48582860161286e565b92505060206128e58582860161289a565b9150509250929050565b60008115159050919050565b612904816128ef565b82525050565b600060208201905061291f60008301846128fb565b92915050565b61292e81612845565b82525050565b60006020820190506129496000830184612925565b92915050565b600060208201905061296460008301846127e8565b92915050565b60008060006060848603121561298357612982612820565b5b60006129918682870161286e565b93505060206129a28682870161286e565b92505060406129b38682870161289a565b9150509250925092565b600060ff82169050919050565b6129d3816129bd565b82525050565b60006020820190506129ee60008301846129ca565b92915050565b600060208284031215612a0a57612a09612820565b5b6000612a188482850161286e565b91505092915050565b600060208284031215612a3757612a36612820565b5b6000612a458482850161289a565b91505092915050565b60008060408385031215612a6557612a64612820565b5b6000612a738582860161289a565b9250506020612a848582860161289a565b9150509250929050565b6000606082019050612aa360008301866127e8565b612ab060208301856127e8565b612abd60408301846127e8565b949350505050565b60008060408385031215612adc57612adb612820565b5b6000612aea8582860161286e565b9250506020612afb8582860161286e565b9150509250929050565b7f4e487b7100000000000000000000000000000000000000000000000000000000600052602260045260246000fd5b60006002820490506001821680612b4c57607f821691505b602082108103612b5f57612b5e612b05565b5b50919050565b7f494e53554646494349454e545f4c49515549444954595f4255524e4544000000600082015250565b6000612b9b601d83612737565b9150612ba682612b65565b602082019050919050565b60006020820190508181036000830152612bca81612b8e565b9050919050565b7f494e53554646494349454e545f494e5055545f414d4f554e5400000000000000600082015250565b6000612c07601983612737565b9150612c1282612bd1565b602082019050919050565b60006020820190508181036000830152612c3681612bfa565b9050919050565b6000606082019050612c526000830186612925565b612c5f6020830185612925565b612c6c60408301846127e8565b949350505050565b612c7d816128ef565b8114612c8857600080fd5b50565b600081519050612c9a81612c74565b92915050565b600060208284031215612cb657612cb5612820565b5b6000612cc484828501612c8b565b91505092915050565b7f494e56414c49445f544f4b454e5f494e00000000000000000000000000000000600082015250565b6000612d03601083612737565b9150612d0e82612ccd565b602082019050919050565b60006020820190508181036000830152612d3281612cf6565b9050919050565b7f494e56414c49445f544f4b454e5f4f5554000000000000000000000000000000600082015250565b6000612d6f601183612737565b9150612d7a82612d39565b602082019050919050565b60006020820190508181036000830152612d9e81612d62565b9050919050565b7f4944454e544943414c5f41444452455353000000000000000000000000000000600082015250565b6000612ddb601183612737565b9150612de682612da5565b602082019050919050565b60006020820190508181036000830152612e0a81612dce565b9050919050565b7f4e487b7100000000000000000000000000000000000000000000000000000000600052601160045260246000fd5b6000612e4b826127de565b9150612e56836127de565b9250828201905080821115612e6e57612e6d612e11565b5b92915050565b6000612e7f826127de565b9150612e8a836127de565b9250828202612e98816127de565b91508282048414831517612eaf57612eae612e11565b5b5092915050565b7f4e487b7100000000000000000000000000000000000000000000000000000000600052601260045260246000fd5b6000612ef0826127de565b9150612efb836127de565b925082612f0b57612f0a612eb6565b5b828204905092915050565b7f494e53554646494349454e545f4f55545055545f414d4f554e54000000000000600082015250565b6000612f4c601a83612737565b9150612f5782612f16565b602082019050919050565b60006020820190508181036000830152612f7b81612f3f565b9050919050565b7f494e53554646494349454e545f4c495155494449545900000000000000000000600082015250565b6000612fb8601683612737565b9150612fc382612f82565b602082019050919050565b60006020820190508181036000830152612fe781612fab565b9050919050565b60006040820190506130036000830185612925565b61301060208301846127e8565b9392505050565b6000613022826127de565b915061302d836127de565b925082820390508181111561304557613044612e11565b5b92915050565b60008151905061305a81612883565b92915050565b60006020828403121561307657613075612820565b5b60006130848482850161304b565b91505092915050565b7f4b00000000000000000000000000000000000000000000000000000000000000600082015250565b60006130c3600183612737565b91506130ce8261308d565b602082019050919050565b600060208201905081810360008301526130f2816130b6565b9050919050565b600060608201905061310e6000830186612925565b61311b60208301856127e8565b61312860408301846127e8565b949350505050565b7f4c4f434b45440000000000000000000000000000000000000000000000000000600082015250565b6000613166600683612737565b915061317182613130565b602082019050919050565b6000602082019050818103600083015261319581613159565b9050919050565b600060408201905081810360008301526131b68185612783565b90506131c56020830184612925565b9392505050565b7f494e53554646494349454e545f425f414d4f554e540000000000000000000000600082015250565b6000613202601583612737565b915061320d826131cc565b602082019050919050565b60006020820190508181036000830152613231816131f5565b9050919050565b7f4e487b7100000000000000000000000000000000000000000000000000000000600052600160045260246000fd5b7f494e53554646494349454e545f415f414d4f554e540000000000000000000000600082015250565b600061329d601583612737565b91506132a882613267565b602082019050919050565b600060208201905081810360008301526132cc81613290565b9050919050565b7f494e53554646494349454e545f4c49515549444954595f4d494e544544000000600082015250565b6000613309601d83612737565b9150613314826132d3565b602082019050919050565b60006020820190508181036000830152613338816132fc565b9050919050565b600081519050919050565b600081905092915050565b60006133608261333f565b61336a818561334a565b935061337a818560208601612748565b80840191505092915050565b60006133928284613355565b915081905092915050565b7f5452414e534645525f4641494c45440000000000000000000000000000000000600082015250565b60006133d3600f83612737565b91506133de8261339d565b602082019050919050565b60006020820190508181036000830152613402816133c6565b9050919050565b7f494e53554646494349454e545f414d4f554e5400000000000000000000000000600082015250565b600061343f601383612737565b915061344a82613409565b602082019050919050565b6000602082019050818103600083015261346e81613432565b9050919050565b7f4e487b7100000000000000000000000000000000000000000000000000000000600052605160045260246000fdfea26469706673582212206b448a972fe8a4b583dc912abac95a61aa038b33f0a83d4b52ddd3ffd18bf7c364736f6c63430008140033",
  "linkReferences": {},
  "deployedLinkReferences": {}
}