{
  "_format": "hh-sol-artifact-1",
  "contractName": "Pair",
  "sourceName": "contracts/Pair.sol",
  "abi": [
    {
      "inputs": [
        {
          "internalType": "address",
          "name": "_tokenA",
          "type": "address"
        },
        {
          "internalType": "address",
          "name": "_tokenB",
          "type": "address"
        }
      ],
      "stateMutability": "nonpayable",
      "type": "constructor"
    },
    {
      "inputs": [
        {
          "internalType": "address",
          "name": "spender",
          "type": "address"
        },
        {
          "internalType": "uint256",
          "name": "allowance",
          "type": "uint256"
        },
        {
          "internalType": "uint256",
          "name": "needed",
          "type": "uint256"
        }
      ],
      "name": "ERC20InsufficientAllowance",
      "type": "error"
    },
    {
      "inputs": [
        {
          "internalType": "address",
          "name": "sender",
          "type": "address"
        },
        {
          "internalType": "uint256",
          "name": "balance",
          "type": "uint256"
        },
        {
          "internalType": "uint256",
          "name": "needed",
          "type": "uint256"
        }
      ],
      "name": "ERC20InsufficientBalance",
      "type": "error"
    },
    {
      "inputs": [
        {
          "internalType": "address",
          "name": "approver",
          "type": "address"
        }
      ],
      "name": "ERC20InvalidApprover",
      "type": "error"
    },
    {
      "inputs": [
        {
          "internalType": "address",
          "name": "receiver",
          "type": "address"
        }
      ],
      "name": "ERC20InvalidReceiver",
      "type": "error"
    },
    {
      "inputs": [
        {
          "internalType": "address",
          "name": "sender",
          "type": "address"
        }
      ],
      "name": "ERC20InvalidSender",
      "type": "error"
    },
    {
      "inputs": [
        {
          "internalType": "address",
          "name": "spender",
          "type": "address"
        }
      ],
      "name": "ERC20InvalidSpender",
      "type": "error"
    },
    {
      "anonymous": false,
      "inputs": [
        {
          "indexed": true,
          "internalType": "address",
          "name": "sender",
          "type": "address"
        },
        {
          "indexed": false,
          "internalType": "uint256",
          "name": "amountA",
          "type": "uint256"
        },
        {
          "indexed": false,
          "internalType": "uint256",
          "name": "amountB",
          "type": "uint256"
        },
        {
          "indexed": false,
          "internalType": "uint256",
          "name": "liquidity",
          "type": "uint256"
        }
      ],
      "name": "AddLiquidity",
      "type": "event"
    },
    {
      "anonymous": false,
      "inputs": [
        {
          "indexed": true,
          "internalType": "address",
          "name": "owner",
          "type": "address"
        },
        {
          "indexed": true,
          "internalType": "address",
          "name": "spender",
          "type": "address"
        },
        {
          "indexed": false,
          "internalType": "uint256",
          "name": "value",
          "type": "uint256"
        }
      ],
      "name": "Approval",
      "type": "event"
    },
    {
      "anonymous": false,
      "inputs": [
        {
          "indexed": true,
          "internalType": "address",
          "name": "sender",
          "type": "address"
        },
        {
          "indexed": false,
          "internalType": "uint256",
          "name": "amount0",
          "type": "uint256"
        },
        {
          "indexed": false,
          "internalType": "uint256",
          "name": "amount1",
          "type": "uint256"
        },
        {
          "indexed": true,
          "internalType": "address",
          "name": "to",
          "type": "address"
        }
      ],
      "name": "Burn",
      "type": "event"
    },
    {
      "anonymous": false,
      "inputs": [
        {
          "indexed": true,
          "internalType": "address",
          "name": "sender",
          "type": "address"
        },
        {
          "indexed": false,
          "internalType": "uint256",
          "name": "amount0",
          "type": "uint256"
        },
        {
          "indexed": false,
          "internalType": "uint256",
          "name": "amount1",
          "type": "uint256"
        }
      ],
      "name": "Mint",
      "type": "event"
    },
    {
      "anonymous": false,
      "inputs": [
        {
          "indexed": true,
          "internalType": "address",
          "name": "sender",
          "type": "address"
        },
        {
          "indexed": false,
          "internalType": "uint256",
          "name": "amountA",
          "type": "uint256"
        },
        {
          "indexed": false,
          "internalType": "uint256",
          "name": "amountB",
          "type": "uint256"
        },
        {
          "indexed": false,
          "internalType": "uint256",
          "name": "liquidity",
          "type": "uint256"
        }
      ],
      "name": "RemoveLiquidity",
      "type": "event"
    },
    {
      "anonymous": false,
      "inputs": [
        {
          "indexed": true,
          "internalType": "address",
          "name": "sender",
          "type": "address"
        },
        {
          "indexed": true,
          "internalType": "address",
          "name": "tokenIn",
          "type": "address"
        },
        {
          "indexed": true,
          "internalType": "address",
          "name": "tokenOut",
          "type": "address"
        },
        {
          "indexed": false,
          "internalType": "uint256",
          "name": "amountIn",
          "type": "uint256"
        },
        {
          "indexed": false,
          "internalType": "uint256",
          "name": "amountOut",
          "type": "uint256"
        }
      ],
      "name": "Swap",
      "type": "event"
    },
    {
      "anonymous": false,
      "inputs": [
        {
          "indexed": true,
          "internalType": "address",
          "name": "from",
          "type": "address"
        },
        {
          "indexed": true,
          "internalType": "address",
          "name": "to",
          "type": "address"
        },
        {
          "indexed": false,
          "internalType": "uint256",
          "name": "value",
          "type": "uint256"
        }
      ],
      "name": "Transfer",
      "type": "event"
    },
    {
      "inputs": [
        {
          "internalType": "uint256",
          "name": "amountAIn",
          "type": "uint256"
        },
        {
          "internalType": "uint256",
          "name": "amountBIn",
          "type": "uint256"
        }
      ],
      "name": "addLiquidity",
      "outputs": [
        {
          "internalType": "uint256",
          "name": "_amountA",
          "type": "uint256"
        },
        {
          "internalType": "uint256",
          "name": "_amountB",
          "type": "uint256"
        },
        {
          "internalType": "uint256",
          "name": "liquidity",
          "type": "uint256"
        }
      ],
      "stateMutability": "nonpayable",
      "type": "function"
    },
    {
      "inputs": [
        {
          "internalType": "address",
          "name": "owner",
          "type": "address"
        },
        {
          "internalType": "address",
          "name": "spender",
          "type": "address"
        }
      ],
      "name": "allowance",
      "outputs": [
        {
          "internalType": "uint256",
          "name": "",
          "type": "uint256"
        }
      ],
      "stateMutability": "view",
      "type": "function"
    },
    {
      "inputs": [
        {
          "internalType": "address",
          "name": "spender",
          "type": "address"
        },
        {
          "internalType": "uint256",
          "name": "value",
          "type": "uint256"
        }
      ],
      "name": "approve",
      "outputs": [
        {
          "internalType": "bool",
          "name": "",
          "type": "bool"
        }
      ],
      "stateMutability": "nonpayable",
      "type": "function"
    },
    {
      "inputs": [
        {
          "internalType": "address",
          "name": "account",
          "type": "address"
        }
      ],
      "name": "balanceOf",
      "outputs": [
        {
          "internalType": "uint256",
          "name": "",
          "type": "uint256"
        }
      ],
      "stateMutability": "view",
      "type": "function"
    },
    {
      "inputs": [],
      "name": "decimals",
      "outputs": [
        {
          "internalType": "uint8",
          "name": "",
          "type": "uint8"
        }
      ],
      "stateMutability": "view",
      "type": "function"
    },
    {
      "inputs": [],
      "name": "getReserves",
      "outputs": [
        {
          "internalType": "uint256",
          "name": "_reserveA",
          "type": "uint256"
        },
        {
          "internalType": "uint256",
          "name": "_reserveB",
          "type": "uint256"
        }
      ],
      "stateMutability": "view",
      "type": "function"
    },
    {
      "inputs": [],
      "name": "getTokenA",
      "outputs": [
        {
          "internalType": "address",
          "name": "_tokenA",
          "type": "address"
        }
      ],
      "stateMutability": "view",
      "type": "function"
    },
    {
      "inputs": [],
      "name": "getTokenB",
      "outputs": [
        {
          "internalType": "address",
          "name": "_tokenB",
          "type": "address"
        }
      ],
      "stateMutability": "view",
      "type": "function"
    },
    {
      "inputs": [],
      "name": "name",
      "outputs": [
        {
          "internalType": "string",
          "name": "",
          "type": "string"
        }
      ],
      "stateMutability": "view",
      "type": "function"
    },
    {
      "inputs": [
        {
          "internalType": "uint256",
          "name": "liquidity",
          "type": "uint256"
        }
      ],
      "name": "removeLiquidity",
      "outputs": [
        {
          "internalType": "uint256",
          "name": "_amountA",
          "type": "uint256"
        },
        {
          "internalType": "uint256",
          "name": "_amountB",
          "type": "uint256"
        }
      ],
      "stateMutability": "nonpayable",
      "type": "function"
    },
    {
      "inputs": [],
      "name": "reserveA",
      "outputs": [
        {
          "internalType": "uint256",
          "name": "",
          "type": "uint256"
        }
      ],
      "stateMutability": "view",
      "type": "function"
    },
    {
      "inputs": [],
      "name": "reserveB",
      "outputs": [
        {
          "internalType": "uint256",
          "name": "",
          "type": "uint256"
        }
      ],
      "stateMutability": "view",
      "type": "function"
    },
    {
      "inputs": [
        {
          "internalType": "address",
          "name": "tokenIn",
          "type": "address"
        },
        {
          "internalType": "address",
          "name": "tokenOut",
          "type": "address"
        },
        {
          "internalType": "uint256",
          "name": "amountIn",
          "type": "uint256"
        }
      ],
      "name": "swap",
      "outputs": [
        {
          "internalType": "uint256",
          "name": "amountOut",
          "type": "uint256"
        }
      ],
      "stateMutability": "nonpayable",
      "type": "function"
    },
    {
      "inputs": [],
      "name": "symbol",
      "outputs": [
        {
          "internalType": "string",
          "name": "",
          "type": "string"
        }
      ],
      "stateMutability": "view",
      "type": "function"
    },
    {
      "inputs": [],
      "name": "tokenA",
      "outputs": [
        {
          "internalType": "address",
          "name": "",
          "type": "address"
        }
      ],
      "stateMutability": "view",
      "type": "function"
    },
    {
      "inputs": [],
      "name": "tokenB",
      "outputs": [
        {
          "internalType": "address",
          "name": "",
          "type": "address"
        }
      ],
      "stateMutability": "view",
      "type": "function"
    },
    {
      "inputs": [],
      "name": "totalSupply",
      "outputs": [
        {
          "internalType": "uint256",
          "name": "",
          "type": "uint256"
        }
      ],
      "stateMutability": "view",
      "type": "function"
    },
    {
      "inputs": [
        {
          "internalType": "address",
          "name": "to",
          "type": "address"
        },
        {
          "internalType": "uint256",
          "name": "value",
          "type": "uint256"
        }
      ],
      "name": "transfer",
      "outputs": [
        {
          "internalType": "bool",
          "name": "",
          "type": "bool"
        }
      ],
      "stateMutability": "nonpayable",
      "type": "function"
    },
    {
      "inputs": [
        {
          "internalType": "address",
          "name": "from",
          "type": "address"
        },
        {
          "internalType": "address",
          "name": "to",
          "type": "address"
        },
        {
          "internalType": "uint256",
          "name": "value",
          "type": "uint256"
        }
      ],
      "name": "transferFrom",
      "outputs": [
        {
          "internalType": "bool",
          "name": "",
          "type": "bool"
        }
      ],
      "stateMutability": "nonpayable",
      "type": "function"
    }
  ],
  "bytecode": "0x608060405260016009553480156200001657600080fd5b50604051620051243803806200512483398181016040528101906200003c9190620007a4565b6040518060400160405280600481526020017f50616972000000000000000000000000000000000000000000000000000000008152506040518060400160405280600481526020017f50414952000000000000000000000000000000000000000000000000000000008152508160039081620000b9919062000a65565b508060049081620000cb919062000a65565b505050620000ea67d93fbd0ffbb52ae860c01b6200067b60201b60201c565b62000106672f981306e33bd44860c01b6200067b60201b60201c565b62000122671923c19abf4db84f60c01b6200067b60201b60201c565b6200013e6781846a97fb310aa060c01b6200067b60201b60201c565b6200014f826200067e60201b60201c565b62000191576040517f08c379a0000000000000000000000000000000000000000000000000000000008152600401620001889062000bad565b60405180910390fd5b620001ad67e6df765603af846060c01b6200067b60201b60201c565b620001c967520f26f1d56dace960c01b6200067b60201b60201c565b620001e56798d7e34d5fa4345660c01b6200067b60201b60201c565b62000201678adef7337314133360c01b6200067b60201b60201c565b62000212816200067e60201b60201c565b62000254576040517f08c379a00000000000000000000000000000000000000000000000000000000081526004016200024b9062000c1f565b60405180910390fd5b62000270676eedcdc8e554c03360c01b6200067b60201b60201c565b6200028c6741c3f68dd9f820d860c01b6200067b60201b60201c565b620002a867a8f99bdfed724d4560c01b6200067b60201b60201c565b620002c467f799616dbd96e57160c01b6200067b60201b60201c565b8073ffffffffffffffffffffffffffffffffffffffff168273ffffffffffffffffffffffffffffffffffffffff160362000335576040517f08c379a00000000000000000000000000000000000000000000000000000000081526004016200032c9062000c91565b60405180910390fd5b62000351673a0169220059528060c01b6200067b60201b60201c565b6200036d67dc85b5eb7b9dd1fd60c01b6200067b60201b60201c565b600060078190555062000391679d6fe09146c1216460c01b6200067b60201b60201c565b6000600881905550620003b56735b59ce4c0caa19260c01b6200067b60201b60201c565b81600560006101000a81548173ffffffffffffffffffffffffffffffffffffffff021916908373ffffffffffffffffffffffffffffffffffffffff1602179055506200041267c4e31d53ea6ab0e460c01b6200067b60201b60201c565b80600660006101000a81548173ffffffffffffffffffffffffffffffffffffffff021916908373ffffffffffffffffffffffffffffffffffffffff1602179055506200046f67b036ab3b0497d91e60c01b6200067b60201b60201c565b6200048b6714568e3f1d99359d60c01b6200067b60201b60201c565b8073ffffffffffffffffffffffffffffffffffffffff168273ffffffffffffffffffffffffffffffffffffffff1611156200059c57620004dc67f666392ca38923c760c01b6200067b60201b60201c565b620004f867e1df2b209da1053d60c01b6200067b60201b60201c565b80600560006101000a81548173ffffffffffffffffffffffffffffffffffffffff021916908373ffffffffffffffffffffffffffffffffffffffff160217905550620005556708cd377a01d5238760c01b6200067b60201b60201c565b81600660006101000a81548173ffffffffffffffffffffffffffffffffffffffff021916908373ffffffffffffffffffffffffffffffffffffffff16021790555062000673565b620005b867c95f4e41425a68e460c01b6200067b60201b60201c565b620005d467a1ef2d5d047ff45060c01b6200067b60201b60201c565b81600560006101000a81548173ffffffffffffffffffffffffffffffffffffffff021916908373ffffffffffffffffffffffffffffffffffffffff160217905550620006316718d50f1f0ec075fe60c01b6200067b60201b60201c565b80600660006101000a81548173ffffffffffffffffffffffffffffffffffffffff021916908373ffffffffffffffffffffffffffffffffffffffff1602179055505b505062000cb3565b50565b60006200069c6779c53ab28cb6ed8960c01b6200067b60201b60201c565b620006b867de553ac9f36cf81e60c01b6200067b60201b60201c565b620006d4678c953c9d833d3a3760c01b6200067b60201b60201c565b6000620006f26799b1e2ccfdbf80a360c01b6200067b60201b60201c565b823b905062000712670e2e9500c267558660c01b6200067b60201b60201c565b6200072e67eb1f8e57ccddfbd760c01b6200067b60201b60201c565b60008111915050919050565b600080fd5b600073ffffffffffffffffffffffffffffffffffffffff82169050919050565b60006200076c826200073f565b9050919050565b6200077e816200075f565b81146200078a57600080fd5b50565b6000815190506200079e8162000773565b92915050565b60008060408385031215620007be57620007bd6200073a565b5b6000620007ce858286016200078d565b9250506020620007e1858286016200078d565b9150509250929050565b600081519050919050565b7f4e487b7100000000000000000000000000000000000000000000000000000000600052604160045260246000fd5b7f4e487b7100000000000000000000000000000000000000000000000000000000600052602260045260246000fd5b600060028204905060018216806200086d57607f821691505b60208210810362000883576200088262000825565b5b50919050565b60008190508160005260206000209050919050565b60006020601f8301049050919050565b600082821b905092915050565b600060088302620008ed7fffffffffffffffffffffffffffffffffffffffffffffffffffffffffffffffff82620008ae565b620008f98683620008ae565b95508019841693508086168417925050509392505050565b6000819050919050565b6000819050919050565b600062000946620009406200093a8462000911565b6200091b565b62000911565b9050919050565b6000819050919050565b620009628362000925565b6200097a62000971826200094d565b848454620008bb565b825550505050565b600090565b6200099162000982565b6200099e81848462000957565b505050565b5b81811015620009c657620009ba60008262000987565b600181019050620009a4565b5050565b601f82111562000a1557620009df8162000889565b620009ea846200089e565b81016020851015620009fa578190505b62000a1262000a09856200089e565b830182620009a3565b50505b505050565b600082821c905092915050565b600062000a3a6000198460080262000a1a565b1980831691505092915050565b600062000a55838362000a27565b9150826002028217905092915050565b62000a7082620007eb565b67ffffffffffffffff81111562000a8c5762000a8b620007f6565b5b62000a98825462000854565b62000aa5828285620009ca565b600060209050601f83116001811462000add576000841562000ac8578287015190505b62000ad4858262000a47565b86555062000b44565b601f19841662000aed8662000889565b60005b8281101562000b175784890151825560018201915060208501945060208101905062000af0565b8683101562000b37578489015162000b33601f89168262000a27565b8355505b6001600288020188555050505b505050505050565b600082825260208201905092915050565b7f544f4b454e415f49535f4e4f545f434f4e545241435400000000000000000000600082015250565b600062000b9560168362000b4c565b915062000ba28262000b5d565b602082019050919050565b6000602082019050818103600083015262000bc88162000b86565b9050919050565b7f544f4b454e425f49535f4e4f545f434f4e545241435400000000000000000000600082015250565b600062000c0760168362000b4c565b915062000c148262000bcf565b602082019050919050565b6000602082019050818103600083015262000c3a8162000bf8565b9050919050565b7f544f4b454e415f544f4b454e425f4944454e544943414c5f4144445245535300600082015250565b600062000c79601f8362000b4c565b915062000c868262000c41565b602082019050919050565b6000602082019050818103600083015262000cac8162000c6a565b9050919050565b6144618062000cc36000396000f3fe608060405234801561001057600080fd5b50600436106101215760003560e01c80635f64b55b116100ad578063a9059cbb11610071578063a9059cbb14610328578063ae0ba2fb14610358578063dc5fa6c514610376578063dd62ed3e14610394578063df791e50146103c457610121565b80635f64b55b1461025957806370a082311461027757806395d89b41146102a75780639c8f9f23146102c55780639cd441da146102f657610121565b80630fc63d10116100f45780630fc63d10146101b157806318160ddd146101cf57806319e36f3b146101ed57806323b872dd1461020b578063313ce5671461023b57610121565b806306fdde03146101265780630902f1ac14610144578063095ea7b3146101635780630f0148ea14610193575b600080fd5b61012e6103f4565b60405161013b91906137a2565b60405180910390f35b61014c610486565b60405161015a9291906137dd565b60405180910390f35b61017d60048036038101906101789190613895565b6104d3565b60405161018a91906138f0565b60405180910390f35b61019b6104f6565b6040516101a8919061391a565b60405180910390f35b6101b9610548565b6040516101c6919061391a565b60405180910390f35b6101d761056e565b6040516101e49190613935565b60405180910390f35b6101f5610578565b6040516102029190613935565b60405180910390f35b61022560048036038101906102209190613950565b61057e565b60405161023291906138f0565b60405180910390f35b6102436105ad565b60405161025091906139bf565b60405180910390f35b6102616105b6565b60405161026e919061391a565b60405180910390f35b610291600480360381019061028c91906139da565b6105dc565b60405161029e9190613935565b60405180910390f35b6102af610624565b6040516102bc91906137a2565b60405180910390f35b6102df60048036038101906102da9190613a07565b6106b6565b6040516102ed9291906137dd565b60405180910390f35b610310600480360381019061030b9190613a34565b610837565b60405161031f93929190613a74565b60405180910390f35b610342600480360381019061033d9190613895565b610c4c565b60405161034f91906138f0565b60405180910390f35b610360610c6f565b60405161036d919061391a565b60405180910390f35b61037e610cc1565b60405161038b9190613935565b60405180910390f35b6103ae60048036038101906103a99190613aab565b610cc7565b6040516103bb9190613935565b60405180910390f35b6103de60048036038101906103d99190613950565b610d4e565b6040516103eb9190613935565b60405180910390f35b60606003805461040390613b1a565b80601f016020809104026020016040519081016040528092919081815260200182805461042f90613b1a565b801561047c5780601f106104515761010080835404028352916020019161047c565b820191906000526020600020905b81548152906001019060200180831161045f57829003601f168201915b5050505050905090565b60008061049d6703a68282582dee8d60c01b611a49565b6104b167b745bcb46d32fe0460c01b611a49565b60075491506104ca673c92c7532a7d71d960c01b611a49565b60085490509091565b6000806104de611a4c565b90506104eb818585611a54565b600191505092915050565b600061050c67a8757a83d55b88f960c01b611a49565b610520677c3f71797022d07b60c01b611a49565b600660009054906101000a900473ffffffffffffffffffffffffffffffffffffffff16905090565b600560009054906101000a900473ffffffffffffffffffffffffffffffffffffffff1681565b6000600254905090565b60085481565b600080610589611a4c565b9050610596858285611a66565b6105a1858585611afa565b60019150509392505050565b60006012905090565b600660009054906101000a900473ffffffffffffffffffffffffffffffffffffffff1681565b60008060008373ffffffffffffffffffffffffffffffffffffffff1673ffffffffffffffffffffffffffffffffffffffff168152602001908152602001600020549050919050565b60606004805461063390613b1a565b80601f016020809104026020016040519081016040528092919081815260200182805461065f90613b1a565b80156106ac5780601f10610681576101008083540402835291602001916106ac565b820191906000526020600020905b81548152906001019060200180831161068f57829003601f168201915b5050505050905090565b6000806106cd67ee7e7f1a80a538c360c01b611a49565b6106e1670f2641dcc43b9be660c01b611a49565b6106f5670149f151352a9a1260c01b611a49565b610709675b4fc63911543fa360c01b611a49565b6000831161074c576040517f08c379a000000000000000000000000000000000000000000000000000000000815260040161074390613b97565b60405180910390fd5b6107606757f3ef1912e2a38260c01b611a49565b610774675363477b874aea7d60c01b611a49565b61078867cc774b2a01f2a55960c01b611a49565b610793333085611afa565b6107a76708ab22ee1b1f334b60c01b611a49565b6107b033611bee565b80925081935050506107cc676c4125720b2c228260c01b611a49565b6107e067a731fcf3b0ee44af60c01b611a49565b3373ffffffffffffffffffffffffffffffffffffffff167f59c3a0b60c6ab7deb62e1440c9e72441db6db7dfe514dba8cb18e60c0d896efa83838660405161082a93929190613a74565b60405180910390a2915091565b600080600061085067f4c68e3a4f37f4a260c01b611a49565b61086467ecf780f7c9614f3a60c01b611a49565b61087867693a5b56432b838260c01b611a49565b61088c6785ed9a9f6c9b860560c01b611a49565b600085116108cf576040517f08c379a00000000000000000000000000000000000000000000000000000000081526004016108c690613c03565b60405180910390fd5b6108e367a473ed1b5511a61460c01b611a49565b6108f767073dcd213c6260ab60c01b611a49565b61090b67ca0fc145822b2e7d60c01b611a49565b61091f677a6dd5601d472bff60c01b611a49565b60008411610962576040517f08c379a000000000000000000000000000000000000000000000000000000000815260040161095990613c03565b60405180910390fd5b610976677b9f08beb5d6e6a660c01b611a49565b61098a6760ced8848e8f357460c01b611a49565b610994858561231e565b80935081945050506109b06707214054fe587a3860c01b611a49565b6109c467efc72b4dd5757ad860c01b611a49565b3373ffffffffffffffffffffffffffffffffffffffff167fbeb3885786d637a474cbc287c0a44587231633a077f0bd30354d5a4b18996fce848484604051610a0e93929190613a74565b60405180910390a2610a2a675ea5b61c84aa7efb60c01b611a49565b610a3e6732fa1a6d509ecfff60c01b611a49565b600560009054906101000a900473ffffffffffffffffffffffffffffffffffffffff1673ffffffffffffffffffffffffffffffffffffffff166323b872dd3330866040518463ffffffff1660e01b8152600401610a9d93929190613c23565b6020604051808303816000875af1158015610abc573d6000803e3d6000fd5b505050506040513d601f19601f82011682018060405250810190610ae09190613c86565b50610af567cb5e7d3437f9c07a60c01b611a49565b610b09676732b8f6ce2c7c8660c01b611a49565b600660009054906101000a900473ffffffffffffffffffffffffffffffffffffffff1673ffffffffffffffffffffffffffffffffffffffff166323b872dd3330856040518463ffffffff1660e01b8152600401610b6893929190613c23565b6020604051808303816000875af1158015610b87573d6000803e3d6000fd5b505050506040513d601f19601f82011682018060405250810190610bab9190613c86565b50610bc06725ad5f426df8cc2c60c01b611a49565b610bc933612639565b9050610bdf6764498e401b1d1f4a60c01b611a49565b610bf3673c58b7b3affec40860c01b611a49565b3373ffffffffffffffffffffffffffffffffffffffff167fbeb3885786d637a474cbc287c0a44587231633a077f0bd30354d5a4b18996fce848484604051610c3d93929190613a74565b60405180910390a29250925092565b600080610c57611a4c565b9050610c64818585611afa565b600191505092915050565b6000610c85672c37c559b3161ef960c01b611a49565b610c99679002e014bb71391760c01b611a49565b600560009054906101000a900473ffffffffffffffffffffffffffffffffffffffff16905090565b60075481565b6000600160008473ffffffffffffffffffffffffffffffffffffffff1673ffffffffffffffffffffffffffffffffffffffff16815260200190815260200160002060008373ffffffffffffffffffffffffffffffffffffffff1673ffffffffffffffffffffffffffffffffffffffff16815260200190815260200160002054905092915050565b6000610d646732f6690b27cfb55b60c01b611a49565b610d7867beb19468a0d49f5460c01b611a49565b610d8c67c71f78095fdd043960c01b611a49565b610da06772fe5799d819da0260c01b611a49565b600560009054906101000a900473ffffffffffffffffffffffffffffffffffffffff1673ffffffffffffffffffffffffffffffffffffffff168473ffffffffffffffffffffffffffffffffffffffff16148015610e0d5750610e0c670f4f5eae62373c3b60c01b612bf5565b5b80610e815750600660009054906101000a900473ffffffffffffffffffffffffffffffffffffffff1673ffffffffffffffffffffffffffffffffffffffff168473ffffffffffffffffffffffffffffffffffffffff16148015610e805750610e7f67dfe6270d75d5aef160c01b612bf5565b5b5b610ec0576040517f08c379a0000000000000000000000000000000000000000000000000000000008152600401610eb790613cff565b60405180910390fd5b610ed467f4889311ef4f291060c01b611a49565b610ee867bd9a4f215725de1760c01b611a49565b610efc67965b6035b0c2a50860c01b611a49565b610f1067dc8034af5371b48b60c01b611a49565b600560009054906101000a900473ffffffffffffffffffffffffffffffffffffffff1673ffffffffffffffffffffffffffffffffffffffff168373ffffffffffffffffffffffffffffffffffffffff16148015610f7d5750610f7c67857be393d99c0f1660c01b612bf5565b5b80610ff15750600660009054906101000a900473ffffffffffffffffffffffffffffffffffffffff1673ffffffffffffffffffffffffffffffffffffffff168373ffffffffffffffffffffffffffffffffffffffff16148015610ff05750610fef672a99ef7eb08c6af560c01b612bf5565b5b5b611030576040517f08c379a000000000000000000000000000000000000000000000000000000000815260040161102790613d6b565b60405180910390fd5b61104467c05e87a3b943322c60c01b611a49565b611058678808a49e087f9c7360c01b611a49565b61106c67b354d630310defca60c01b611a49565b611080673d99f4184bc96aa860c01b611a49565b8273ffffffffffffffffffffffffffffffffffffffff168473ffffffffffffffffffffffffffffffffffffffff16036110ee576040517f08c379a00000000000000000000000000000000000000000000000000000000081526004016110e590613dd7565b60405180910390fd5b61110267cc3afd2e096efbfc60c01b611a49565b61111667ec1d0115f2bea19a60c01b611a49565b61112a67a31fde2d3b6c3b5060c01b611a49565b61113e67b1e09ed0736c0ad160c01b611a49565b60008211611181576040517f08c379a000000000000000000000000000000000000000000000000000000000815260040161117890613c03565b60405180910390fd5b6111956717ff16fd94c14f2560c01b611a49565b6111a9673266f58c3455eef160c01b611a49565b6111bd67016d1ae45c4a559560c01b611a49565b6000600560009054906101000a900473ffffffffffffffffffffffffffffffffffffffff1673ffffffffffffffffffffffffffffffffffffffff168573ffffffffffffffffffffffffffffffffffffffff16148061122b575061122a67196298a320d9f7b860c01b612c00565b5b8015611247575061124667fae73709ec92ca0960c01b612bf5565b5b61125357600854611257565b6007545b905061126d67538259453296c81260c01b611a49565b6112816771c25f7929526fba60c01b611a49565b6000600560009054906101000a900473ffffffffffffffffffffffffffffffffffffffff1673ffffffffffffffffffffffffffffffffffffffff168573ffffffffffffffffffffffffffffffffffffffff1614806112ef57506112ee67f379f78dd4a19dea60c01b612c00565b5b801561130b575061130a679890907f9af2aa8160c01b612bf5565b5b6113175760085461131b565b6007545b905061133167b1071b8c54709df160c01b611a49565b838261133d9190613e26565b81856113499190613e5a565b6113539190613ecb565b92506113696727943e0efde4100360c01b611a49565b61137d67d4f24cab416d713160c01b611a49565b6113916755ba3495f4bb70d660c01b611a49565b600083116113d4576040517f08c379a00000000000000000000000000000000000000000000000000000000081526004016113cb90613f48565b60405180910390fd5b6113e8672c6a235e3167ffcd60c01b611a49565b6113fc67878c90040d04d45d60c01b611a49565b61141067e281ffce8dee039960c01b611a49565b611424677f43b03f98ec3b6f60c01b611a49565b80831115611467576040517f08c379a000000000000000000000000000000000000000000000000000000000815260040161145e90613fb4565b60405180910390fd5b61147b673a5e18d5e269496b60c01b611a49565b61148f67756487afa9d0a78d60c01b611a49565b6114a3674c1d0df27d14a48d60c01b611a49565b8573ffffffffffffffffffffffffffffffffffffffff166323b872dd3330876040518463ffffffff1660e01b81526004016114e093929190613c23565b6020604051808303816000875af11580156114ff573d6000803e3d6000fd5b505050506040513d601f19601f820116820180604052508101906115239190613c86565b506115386786a5276fb8512bfd60c01b611a49565b61154c675b4352f4eaff81c560c01b611a49565b8473ffffffffffffffffffffffffffffffffffffffff1663a9059cbb33856040518363ffffffff1660e01b8152600401611587929190613fd4565b6020604051808303816000875af11580156115a6573d6000803e3d6000fd5b505050506040513d601f19601f820116820180604052508101906115ca9190613c86565b506115df6773a8d168419a29c460c01b611a49565b6115f367e00d52c9a59deba060c01b611a49565b600560009054906101000a900473ffffffffffffffffffffffffffffffffffffffff1673ffffffffffffffffffffffffffffffffffffffff168673ffffffffffffffffffffffffffffffffffffffff16036116bb5761165c675473733f729ccc7560c01b611a49565b611670678bb3b2684c9c14ee60c01b611a49565b83600760008282546116829190613e26565b9250508190555061169d674a6247f1e5f141e060c01b611a49565b82600860008282546116af9190613ffd565b9250508190555061172a565b6116cf675b81be84b317391660c01b611a49565b6116e3679a22bc565335fb0e60c01b611a49565b82600760008282546116f59190613ffd565b92505081905550611710676d2b1effb192fc5a60c01b611a49565b83600860008282546117229190613e26565b925050819055505b61173e67c48bea452946a1c260c01b611a49565b61175267589945673a70815c60c01b611a49565b6000600560009054906101000a900473ffffffffffffffffffffffffffffffffffffffff1673ffffffffffffffffffffffffffffffffffffffff166370a08231306040518263ffffffff1660e01b81526004016117af919061391a565b602060405180830381865afa1580156117cc573d6000803e3d6000fd5b505050506040513d601f19601f820116820180604052508101906117f09190614046565b905061180667ff323013fb9fb0c760c01b611a49565b61181a67ce0dc48c9725392360c01b611a49565b6000600660009054906101000a900473ffffffffffffffffffffffffffffffffffffffff1673ffffffffffffffffffffffffffffffffffffffff166370a08231306040518263ffffffff1660e01b8152600401611877919061391a565b602060405180830381865afa158015611894573d6000803e3d6000fd5b505050506040513d601f19601f820116820180604052508101906118b89190614046565b90506118ce6766498efe5b600ac760c01b611a49565b6118e2673c668123e81deb4360c01b611a49565b6118f6678fc1c650f321e6a160c01b611a49565b6008546007546119069190613e5a565b81836119129190613e5a565b14611952576040517f08c379a0000000000000000000000000000000000000000000000000000000008152600401611949906140bf565b60405180910390fd5b61196667d8de064d05ab7ebb60c01b611a49565b61197a6719586d13bc97cb7d60c01b611a49565b61198e676dcba83bc9f8002060c01b611a49565b6119988282612c07565b6119ac670bc2a8c6ffa191f260c01b611a49565b6119c0674c7c3b534355899a60c01b611a49565b8673ffffffffffffffffffffffffffffffffffffffff168873ffffffffffffffffffffffffffffffffffffffff163373ffffffffffffffffffffffffffffffffffffffff167fcd3829a3813dc3cdd188fd3d01dcf3268c16be2fdd2dd21d0665418816e460628989604051611a369291906137dd565b60405180910390a4505050509392505050565b50565b600033905090565b611a618383836001612c55565b505050565b6000611a728484610cc7565b90507fffffffffffffffffffffffffffffffffffffffffffffffffffffffffffffffff8114611af45781811015611ae4578281836040517ffb8f41b2000000000000000000000000000000000000000000000000000000008152600401611adb939291906140df565b60405180910390fd5b611af384848484036000612c55565b5b50505050565b600073ffffffffffffffffffffffffffffffffffffffff168373ffffffffffffffffffffffffffffffffffffffff1603611b6c5760006040517f96c6fd1e000000000000000000000000000000000000000000000000000000008152600401611b63919061391a565b60405180910390fd5b600073ffffffffffffffffffffffffffffffffffffffff168273ffffffffffffffffffffffffffffffffffffffff1603611bde5760006040517fec442f05000000000000000000000000000000000000000000000000000000008152600401611bd5919061391a565b60405180910390fd5b611be9838383612e2c565b505050565b600080611c05675a1a646e4981816060c01b611a49565b611c1967f437e6af25a5837360c01b611a49565b611c2d673fd3898a6d31a1c460c01b611a49565b611c416777531d3e45709dbd60c01b611a49565b611c5567338da3621f60b86c60c01b611a49565b600160095414611c9a576040517f08c379a0000000000000000000000000000000000000000000000000000000008152600401611c9190614162565b60405180910390fd5b611cae677276e7b06d3ecd3560c01b611a49565b611cc26739ebbd038921487960c01b611a49565b6000600981905550611cde6780825809d66a209660c01b611a49565b611cf267d1917ec780b0213060c01b611a49565b611d066745ff4bc73e0f087f60c01b611a49565b611d1a671567944b4e30896260c01b611a49565b611d2e6708d983de30f11ec960c01b611a49565b6000600560009054906101000a900473ffffffffffffffffffffffffffffffffffffffff1673ffffffffffffffffffffffffffffffffffffffff166370a08231306040518263ffffffff1660e01b8152600401611d8b919061391a565b602060405180830381865afa158015611da8573d6000803e3d6000fd5b505050506040513d601f19601f82011682018060405250810190611dcc9190614046565b9050611de267365425ceb2add9ee60c01b611a49565b611df667900488659b7b2b9760c01b611a49565b6000600660009054906101000a900473ffffffffffffffffffffffffffffffffffffffff1673ffffffffffffffffffffffffffffffffffffffff166370a08231306040518263ffffffff1660e01b8152600401611e53919061391a565b602060405180830381865afa158015611e70573d6000803e3d6000fd5b505050506040513d601f19601f82011682018060405250810190611e949190614046565b9050611eaa6747cfd47cc16a2cb160c01b611a49565b611ebe67d6069826b89b13fe60c01b611a49565b6000611ec9306105dc565b9050611edf67069fb21ed59c561460c01b611a49565b611ef3670bffb4e3f833c0e660c01b611a49565b6000611efd61056e565b9050611f1367ec08b2462c4c0cb460c01b611a49565b808483611f209190613e5a565b611f2a9190613ecb565b9550611f40672a3200dda78ee84460c01b611a49565b808383611f4d9190613e5a565b611f579190613ecb565b9450611f6d67501adbc323c46ee360c01b611a49565b611f81679bce51e6f4a4e2bd60c01b611a49565b611f95675e0d1ae87b3ec51960c01b611a49565b600086118015611fa55750600085115b611fe4576040517f08c379a0000000000000000000000000000000000000000000000000000000008152600401611fdb90613b97565b60405180910390fd5b611ff8674811e8f349e2648d60c01b611a49565b61200c6724b7ad51d8a5fd9560c01b611a49565b61202067eb5de9df579edab360c01b611a49565b61202a3083613051565b61203e67674f725e8dae681b60c01b611a49565b612052679ec44918da7ff52860c01b611a49565b61207f600560009054906101000a900473ffffffffffffffffffffffffffffffffffffffff1688886130d3565b612093675dc3f9519c0fd3a960c01b611a49565b6120a767b506bf2e6efdf60160c01b611a49565b6120d4600660009054906101000a900473ffffffffffffffffffffffffffffffffffffffff1688876130d3565b6120e86799385360eb0e379960c01b611a49565b600560009054906101000a900473ffffffffffffffffffffffffffffffffffffffff1673ffffffffffffffffffffffffffffffffffffffff166370a08231306040518263ffffffff1660e01b8152600401612143919061391a565b602060405180830381865afa158015612160573d6000803e3d6000fd5b505050506040513d601f19601f820116820180604052508101906121849190614046565b935061219a678b0e9ea31d53d32e60c01b611a49565b600660009054906101000a900473ffffffffffffffffffffffffffffffffffffffff1673ffffffffffffffffffffffffffffffffffffffff166370a08231306040518263ffffffff1660e01b81526004016121f5919061391a565b602060405180830381865afa158015612212573d6000803e3d6000fd5b505050506040513d601f19601f820116820180604052508101906122369190614046565b925061224c67b3edcd131ea21d4860c01b611a49565b6122606720c141011fda6c6f60c01b611a49565b61226a8484612c07565b61227e6775d65256fa7c279760c01b611a49565b61229267544717946618dfa760c01b611a49565b8673ffffffffffffffffffffffffffffffffffffffff163373ffffffffffffffffffffffffffffffffffffffff167fdccd412f0b1252819cb1fd330b93224ca42612892bb3f4f789976e6d8193649688886040516122f19291906137dd565b60405180910390a350505050612311678c6aeb6cf681181b60c01b611a49565b6001600981905550915091565b60008061233567949eca3e6d02fc3560c01b611a49565b6123496730b0e7dc77dd58af60c01b611a49565b61235d671e39bc62cb0c8f8760c01b611a49565b600060075414801561237157506000600854145b156123ad5761238a671e38a2dfa3f1264c60c01b611a49565b61239e67dde3ba222db0ea1a60c01b611a49565b83838092508193505050612632565b6123c1671c1ea2a0fc6190da60c01b611a49565b6123d56752f277707a2c05d860c01b611a49565b6123e96739a656695233e13c60c01b611a49565b60006123fa85600754600854613321565b905061241067051b940a4fbf36f360c01b611a49565b612424675b598172822f0a3060c01b611a49565b8381116124f55761243f6743b90766f1d4c73c60c01b611a49565b61245367a2e5868b46e678e060c01b611a49565b612467675603989eaa6219eb60c01b611a49565b61247b67dd1a5507e975213860c01b611a49565b600081116124be576040517f08c379a00000000000000000000000000000000000000000000000000000000081526004016124b5906141ce565b60405180910390fd5b6124d2671cad0bb9a78c932460c01b611a49565b6124e667c354fe4ae033894e60c01b611a49565b84818093508194505050612630565b61250967924f5763a001670360c01b611a49565b61251d6798ad682d50945ecb60c01b611a49565b612531670f9208a8edeaa8cf60c01b611a49565b600061254285600854600754613321565b905061255867fcdeca19c5f1a86d60c01b611a49565b61256c67016e379af99ec3ad60c01b611a49565b8581111561257d5761257c6141ee565b5b61259167fb9d76dea5c1fc9260c01b611a49565b6125a5676c553614d331ea7f60c01b611a49565b6125b967f6243ba8317ac24a60c01b611a49565b600081116125fc576040517f08c379a00000000000000000000000000000000000000000000000000000000081526004016125f390614269565b60405180910390fd5b61261067d1405b70742e615660c01b611a49565b61262467a18c36287dbcca7960c01b611a49565b80858094508195505050505b505b9250929050565b600061264f67a08a31d8738fe7d960c01b611a49565b61266367f437e6af25a5837360c01b611a49565b612677673fd3898a6d31a1c460c01b611a49565b61268b6777531d3e45709dbd60c01b611a49565b61269f67338da3621f60b86c60c01b611a49565b6001600954146126e4576040517f08c379a00000000000000000000000000000000000000000000000000000000081526004016126db90614162565b60405180910390fd5b6126f8677276e7b06d3ecd3560c01b611a49565b61270c6739ebbd038921487960c01b611a49565b60006009819055506127286780825809d66a209660c01b611a49565b61273c674eb08a13809cd16260c01b611a49565b61275067976be4d72878dd6860c01b611a49565b612764673abbee70db91cae960c01b611a49565b61277867ad86e876fc4a30c360c01b611a49565b6000600560009054906101000a900473ffffffffffffffffffffffffffffffffffffffff1673ffffffffffffffffffffffffffffffffffffffff166370a08231306040518263ffffffff1660e01b81526004016127d5919061391a565b602060405180830381865afa1580156127f2573d6000803e3d6000fd5b505050506040513d601f19601f820116820180604052508101906128169190614046565b905061282c674805d70cf209bda160c01b611a49565b61284067f217649a60d4429360c01b611a49565b6000600660009054906101000a900473ffffffffffffffffffffffffffffffffffffffff1673ffffffffffffffffffffffffffffffffffffffff166370a08231306040518263ffffffff1660e01b815260040161289d919061391a565b602060405180830381865afa1580156128ba573d6000803e3d6000fd5b505050506040513d601f19601f820116820180604052508101906128de9190614046565b90506128f46797847526b9ca71bf60c01b611a49565b61290867698e3043a076400f60c01b611a49565b6000600754836129189190613ffd565b905061292e67ba4503b8882af99960c01b611a49565b61294267f78ce3f4395a875860c01b611a49565b6000600854836129529190613ffd565b905061296867b0c15e0d8ef83ab660c01b611a49565b61297c672ef4bd2408a816ea60c01b611a49565b600061298661056e565b905061299c67f86abb3057f4b34060c01b611a49565b6129b06721e4c620c9c4a29760c01b611a49565b600081036129fb576129cc67762b5921b4b1e36b60c01b611a49565b6129e067924dc3e6333239d060c01b611a49565b6129f482846129ef9190613e5a565b61349d565b9550612a60565b612a0f674b01fe73cce7d3dc60c01b611a49565b612a2367ee8d258f01dd3d8260c01b611a49565b612a5d6007548285612a359190613e5a565b612a3f9190613ecb565b6008548385612a4e9190613e5a565b612a589190613ecb565b613596565b95505b612a7467129ef48684992a1e60c01b611a49565b612a8867f3c26731cc9a940e60c01b611a49565b612a9c67aa7b78898b640d1a60c01b611a49565b60008611612adf576040517f08c379a0000000000000000000000000000000000000000000000000000000008152600401612ad6906142d5565b60405180910390fd5b612af3674759a84a89544a4460c01b611a49565b612b0767e2ee9a1766caf52860c01b611a49565b612b1b67cbf604f253fe409060c01b611a49565b612b2587876135af565b612b3967369a22488363df2e60c01b611a49565b612b4d67be58c40e18d1ebdc60c01b611a49565b612b578585612c07565b612b6b67619ce9bd6d33950660c01b611a49565b612b7f67da8a8c0abab87e9c60c01b611a49565b3373ffffffffffffffffffffffffffffffffffffffff167f4c209b5fc8ad50758f13e2e1088ba56a560dff690a1c6fef26394f4c03821c4f8484604051612bc79291906137dd565b60405180910390a25050505050612be8678c6aeb6cf681181b60c01b611a49565b6001600981905550919050565b600060019050919050565b6000919050565b612c1b67e086c4bece636ad360c01b611a49565b612c2f67297c9fe2c437798860c01b611a49565b81600781905550612c4a677e9f48f6ecdf65c060c01b611a49565b806008819055505050565b600073ffffffffffffffffffffffffffffffffffffffff168473ffffffffffffffffffffffffffffffffffffffff1603612cc75760006040517fe602df05000000000000000000000000000000000000000000000000000000008152600401612cbe919061391a565b60405180910390fd5b600073ffffffffffffffffffffffffffffffffffffffff168373ffffffffffffffffffffffffffffffffffffffff1603612d395760006040517f94280d62000000000000000000000000000000000000000000000000000000008152600401612d30919061391a565b60405180910390fd5b81600160008673ffffffffffffffffffffffffffffffffffffffff1673ffffffffffffffffffffffffffffffffffffffff16815260200190815260200160002060008573ffffffffffffffffffffffffffffffffffffffff1673ffffffffffffffffffffffffffffffffffffffff168152602001908152602001600020819055508015612e26578273ffffffffffffffffffffffffffffffffffffffff168473ffffffffffffffffffffffffffffffffffffffff167f8c5be1e5ebec7d5bd14f71427d1e84f3dd0314c0f7b2291e5b200ac8c7c3b92584604051612e1d9190613935565b60405180910390a35b50505050565b600073ffffffffffffffffffffffffffffffffffffffff168373ffffffffffffffffffffffffffffffffffffffff1603612e7e578060026000828254612e729190613e26565b92505081905550612f51565b60008060008573ffffffffffffffffffffffffffffffffffffffff1673ffffffffffffffffffffffffffffffffffffffff16815260200190815260200160002054905081811015612f0a578381836040517fe450d38c000000000000000000000000000000000000000000000000000000008152600401612f01939291906140df565b60405180910390fd5b8181036000808673ffffffffffffffffffffffffffffffffffffffff1673ffffffffffffffffffffffffffffffffffffffff16815260200190815260200160002081905550505b600073ffffffffffffffffffffffffffffffffffffffff168273ffffffffffffffffffffffffffffffffffffffff1603612f9a5780600260008282540392505081905550612fe7565b806000808473ffffffffffffffffffffffffffffffffffffffff1673ffffffffffffffffffffffffffffffffffffffff168152602001908152602001600020600082825401925050819055505b8173ffffffffffffffffffffffffffffffffffffffff168373ffffffffffffffffffffffffffffffffffffffff167fddf252ad1be2c89b69c2b068fc378daa952ba7f163c4a11628f55a4df523b3ef836040516130449190613935565b60405180910390a3505050565b600073ffffffffffffffffffffffffffffffffffffffff168273ffffffffffffffffffffffffffffffffffffffff16036130c35760006040517f96c6fd1e0000000000000000000000000000000000000000000000000000000081526004016130ba919061391a565b60405180910390fd5b6130cf82600083612e2c565b5050565b6130e767d748e912b92bd8fc60c01b611a49565b6130fb678bf5a40017a1c5f460c01b611a49565b61310f6765cd61d178eccacd60c01b611a49565b6000808473ffffffffffffffffffffffffffffffffffffffff166040518060400160405280601981526020017f7472616e7366657228616464726573732c75696e743235362900000000000000815250805190602001208585604051602401613179929190613fd4565b604051602081830303815290604052907bffffffffffffffffffffffffffffffffffffffffffffffffffffffff19166020820180517bffffffffffffffffffffffffffffffffffffffffffffffffffffffff83818316178352505050506040516131e3919061433c565b6000604051808303816000865af19150503d8060008114613220576040519150601f19603f3d011682016040523d82523d6000602084013e613225565b606091505b509150915061323e67c8f76067a0b3d27860c01b611a49565b613252678be57d822e851c9360c01b611a49565b6132666748efeca6f9cba9c760c01b611a49565b8180156132c757506000815114801561328f575061328e672c9b4b07b11325c460c01b612bf5565b5b806132c65750808060200190518101906132a99190613c86565b80156132c557506132c467a1d383ccf589bada60c01b612bf5565b5b5b5b613306576040517f08c379a00000000000000000000000000000000000000000000000000000000081526004016132fd9061439f565b60405180910390fd5b61331a67b6f5b8a4f6333d5d60c01b611a49565b5050505050565b600061333767837fd0a176e366b260c01b611a49565b61334b67f3893f9f60f427ca60c01b611a49565b61335f67b8dcfaa06381488960c01b611a49565b6133736753334eefcf059b9260c01b611a49565b600084116133b6576040517f08c379a00000000000000000000000000000000000000000000000000000000081526004016133ad9061440b565b60405180910390fd5b6133ca67afaa4b93c0333d2b60c01b611a49565b6133de67dd2270af10a02ab460c01b611a49565b6133f267c4d11d13c166857c60c01b611a49565b61340667e310f3c6dc0c534d60c01b611a49565b6000831180156134165750600082115b613455576040517f08c379a000000000000000000000000000000000000000000000000000000000815260040161344c90613fb4565b60405180910390fd5b6134696767743dd8e02c586660c01b611a49565b61347d67b0b3f2de83cfc50b60c01b611a49565b82828561348a9190613e5a565b6134949190613ecb565b90509392505050565b60008082036134af5760009050613591565b600060016134bc84613631565b901c6001901b905060018184816134d6576134d5613e9c565b5b048201901c905060018184816134ef576134ee613e9c565b5b048201901c9050600181848161350857613507613e9c565b5b048201901c9050600181848161352157613520613e9c565b5b048201901c9050600181848161353a57613539613e9c565b5b048201901c9050600181848161355357613552613e9c565b5b048201901c9050600181848161356c5761356b613e9c565b5b048201901c905061358d8182858161358757613586613e9c565b5b04613596565b9150505b919050565b60008183106135a557816135a7565b825b905092915050565b600073ffffffffffffffffffffffffffffffffffffffff168273ffffffffffffffffffffffffffffffffffffffff16036136215760006040517fec442f05000000000000000000000000000000000000000000000000000000008152600401613618919061391a565b60405180910390fd5b61362d60008383612e2c565b5050565b600080600090506000608084901c111561365357608083901c92506080810190505b6000604084901c111561366e57604083901c92506040810190505b6000602084901c111561368957602083901c92506020810190505b6000601084901c11156136a457601083901c92506010810190505b6000600884901c11156136bf57600883901c92506008810190505b6000600484901c11156136da57600483901c92506004810190505b6000600284901c11156136f557600283901c92506002810190505b6000600184901c1115613709576001810190505b80915050919050565b600081519050919050565b600082825260208201905092915050565b60005b8381101561374c578082015181840152602081019050613731565b60008484015250505050565b6000601f19601f8301169050919050565b600061377482613712565b61377e818561371d565b935061378e81856020860161372e565b61379781613758565b840191505092915050565b600060208201905081810360008301526137bc8184613769565b905092915050565b6000819050919050565b6137d7816137c4565b82525050565b60006040820190506137f260008301856137ce565b6137ff60208301846137ce565b9392505050565b600080fd5b600073ffffffffffffffffffffffffffffffffffffffff82169050919050565b60006138368261380b565b9050919050565b6138468161382b565b811461385157600080fd5b50565b6000813590506138638161383d565b92915050565b613872816137c4565b811461387d57600080fd5b50565b60008135905061388f81613869565b92915050565b600080604083850312156138ac576138ab613806565b5b60006138ba85828601613854565b92505060206138cb85828601613880565b9150509250929050565b60008115159050919050565b6138ea816138d5565b82525050565b600060208201905061390560008301846138e1565b92915050565b6139148161382b565b82525050565b600060208201905061392f600083018461390b565b92915050565b600060208201905061394a60008301846137ce565b92915050565b60008060006060848603121561396957613968613806565b5b600061397786828701613854565b935050602061398886828701613854565b925050604061399986828701613880565b9150509250925092565b600060ff82169050919050565b6139b9816139a3565b82525050565b60006020820190506139d460008301846139b0565b92915050565b6000602082840312156139f0576139ef613806565b5b60006139fe84828501613854565b91505092915050565b600060208284031215613a1d57613a1c613806565b5b6000613a2b84828501613880565b91505092915050565b60008060408385031215613a4b57613a4a613806565b5b6000613a5985828601613880565b9250506020613a6a85828601613880565b9150509250929050565b6000606082019050613a8960008301866137ce565b613a9660208301856137ce565b613aa360408301846137ce565b949350505050565b60008060408385031215613ac257613ac1613806565b5b6000613ad085828601613854565b9250506020613ae185828601613854565b9150509250929050565b7f4e487b7100000000000000000000000000000000000000000000000000000000600052602260045260246000fd5b60006002820490506001821680613b3257607f821691505b602082108103613b4557613b44613aeb565b5b50919050565b7f494e53554646494349454e545f4c49515549444954595f4255524e4544000000600082015250565b6000613b81601d8361371d565b9150613b8c82613b4b565b602082019050919050565b60006020820190508181036000830152613bb081613b74565b9050919050565b7f494e53554646494349454e545f494e5055545f414d4f554e5400000000000000600082015250565b6000613bed60198361371d565b9150613bf882613bb7565b602082019050919050565b60006020820190508181036000830152613c1c81613be0565b9050919050565b6000606082019050613c38600083018661390b565b613c45602083018561390b565b613c5260408301846137ce565b949350505050565b613c63816138d5565b8114613c6e57600080fd5b50565b600081519050613c8081613c5a565b92915050565b600060208284031215613c9c57613c9b613806565b5b6000613caa84828501613c71565b91505092915050565b7f494e56414c49445f544f4b454e5f494e00000000000000000000000000000000600082015250565b6000613ce960108361371d565b9150613cf482613cb3565b602082019050919050565b60006020820190508181036000830152613d1881613cdc565b9050919050565b7f494e56414c49445f544f4b454e5f4f5554000000000000000000000000000000600082015250565b6000613d5560118361371d565b9150613d6082613d1f565b602082019050919050565b60006020820190508181036000830152613d8481613d48565b9050919050565b7f4944454e544943414c5f41444452455353000000000000000000000000000000600082015250565b6000613dc160118361371d565b9150613dcc82613d8b565b602082019050919050565b60006020820190508181036000830152613df081613db4565b9050919050565b7f4e487b7100000000000000000000000000000000000000000000000000000000600052601160045260246000fd5b6000613e31826137c4565b9150613e3c836137c4565b9250828201905080821115613e5457613e53613df7565b5b92915050565b6000613e65826137c4565b9150613e70836137c4565b9250828202613e7e816137c4565b91508282048414831517613e9557613e94613df7565b5b5092915050565b7f4e487b7100000000000000000000000000000000000000000000000000000000600052601260045260246000fd5b6000613ed6826137c4565b9150613ee1836137c4565b925082613ef157613ef0613e9c565b5b828204905092915050565b7f494e53554646494349454e545f4f55545055545f414d4f554e54000000000000600082015250565b6000613f32601a8361371d565b9150613f3d82613efc565b602082019050919050565b60006020820190508181036000830152613f6181613f25565b9050919050565b7f494e53554646494349454e545f4c495155494449545900000000000000000000600082015250565b6000613f9e60168361371d565b9150613fa982613f68565b602082019050919050565b60006020820190508181036000830152613fcd81613f91565b9050919050565b6000604082019050613fe9600083018561390b565b613ff660208301846137ce565b9392505050565b6000614008826137c4565b9150614013836137c4565b925082820390508181111561402b5761402a613df7565b5b92915050565b60008151905061404081613869565b92915050565b60006020828403121561405c5761405b613806565b5b600061406a84828501614031565b91505092915050565b7f4b00000000000000000000000000000000000000000000000000000000000000600082015250565b60006140a960018361371d565b91506140b482614073565b602082019050919050565b600060208201905081810360008301526140d88161409c565b9050919050565b60006060820190506140f4600083018661390b565b61410160208301856137ce565b61410e60408301846137ce565b949350505050565b7f4c4f434b45440000000000000000000000000000000000000000000000000000600082015250565b600061414c60068361371d565b915061415782614116565b602082019050919050565b6000602082019050818103600083015261417b8161413f565b9050919050565b7f494e53554646494349454e545f425f414d4f554e540000000000000000000000600082015250565b60006141b860158361371d565b91506141c382614182565b602082019050919050565b600060208201905081810360008301526141e7816141ab565b9050919050565b7f4e487b7100000000000000000000000000000000000000000000000000000000600052600160045260246000fd5b7f494e53554646494349454e545f415f414d4f554e540000000000000000000000600082015250565b600061425360158361371d565b915061425e8261421d565b602082019050919050565b6000602082019050818103600083015261428281614246565b9050919050565b7f494e53554646494349454e545f4c49515549444954595f4d494e544544000000600082015250565b60006142bf601d8361371d565b91506142ca82614289565b602082019050919050565b600060208201905081810360008301526142ee816142b2565b9050919050565b600081519050919050565b600081905092915050565b6000614316826142f5565b6143208185614300565b935061433081856020860161372e565b80840191505092915050565b6000614348828461430b565b915081905092915050565b7f5452414e534645525f4641494c45440000000000000000000000000000000000600082015250565b6000614389600f8361371d565b915061439482614353565b602082019050919050565b600060208201905081810360008301526143b88161437c565b9050919050565b7f494e53554646494349454e545f414d4f554e5400000000000000000000000000600082015250565b60006143f560138361371d565b9150614400826143bf565b602082019050919050565b60006020820190508181036000830152614424816143e8565b905091905056fea2646970667358221220fb8a46356a48375ad89007015d37b664d93c7070f7fdf44ffd812dac363a864664736f6c63430008140033",
  "linkReferences": {},
  "deployedLinkReferences": {}
}